{
  "contractName": "Commodity",
  "abi": [
    {
      "constant": true,
      "inputs": [],
      "name": "LIST_FEE",
      "outputs": [
        {
          "name": "",
          "type": "uint256"
        }
      ],
      "payable": false,
      "stateMutability": "view",
      "type": "function"
    },
    {
      "constant": true,
      "inputs": [
        {
          "name": "",
          "type": "uint256"
        }
      ],
      "name": "commodities",
      "outputs": [
        {
          "name": "name",
          "type": "string"
        },
        {
          "name": "price",
          "type": "uint256"
        },
        {
          "name": "available",
          "type": "bool"
        }
      ],
      "payable": false,
      "stateMutability": "view",
      "type": "function"
    },
    {
      "inputs": [],
      "payable": false,
      "stateMutability": "nonpayable",
      "type": "constructor"
    },
    {
      "anonymous": false,
      "inputs": [
        {
          "indexed": false,
          "name": "merchant",
          "type": "address"
        },
        {
          "indexed": false,
          "name": "name",
          "type": "string"
        },
        {
          "indexed": false,
          "name": "price",
          "type": "uint256"
        }
      ],
      "name": "commodityAdded",
      "type": "event"
    },
    {
      "anonymous": false,
      "inputs": [
        {
          "indexed": false,
          "name": "merchant",
          "type": "address"
        },
        {
          "indexed": false,
          "name": "name",
          "type": "string"
        }
      ],
      "name": "commodityEnabled",
      "type": "event"
    },
    {
      "anonymous": false,
      "inputs": [
        {
          "indexed": false,
          "name": "merchant",
          "type": "address"
        },
        {
          "indexed": false,
          "name": "name",
          "type": "string"
        }
      ],
      "name": "commodityDisabled",
      "type": "event"
    },
    {
      "anonymous": false,
      "inputs": [
        {
          "indexed": false,
          "name": "merchant",
          "type": "address"
        },
        {
          "indexed": false,
          "name": "name",
          "type": "string"
        }
      ],
      "name": "commodityRemoved",
      "type": "event"
    },
    {
      "anonymous": false,
      "inputs": [
        {
          "indexed": false,
          "name": "from",
          "type": "uint256"
        },
        {
          "indexed": false,
          "name": "to",
          "type": "uint256"
        }
      ],
      "name": "listFeeChange",
      "type": "event"
    },
    {
      "constant": false,
      "inputs": [
        {
          "name": "_list_fee",
          "type": "uint256"
        }
      ],
      "name": "setFee",
      "outputs": [],
      "payable": false,
      "stateMutability": "nonpayable",
      "type": "function"
    },
    {
      "constant": true,
      "inputs": [
        {
          "name": "index",
          "type": "uint256"
        }
      ],
      "name": "getCommodity",
      "outputs": [
        {
          "components": [
            {
              "name": "name",
              "type": "string"
            },
            {
              "name": "price",
              "type": "uint256"
            },
            {
              "name": "available",
              "type": "bool"
            }
          ],
          "name": "",
          "type": "tuple"
        }
      ],
      "payable": false,
      "stateMutability": "view",
      "type": "function"
    },
    {
      "constant": false,
      "inputs": [
        {
          "name": "name",
          "type": "string"
        },
        {
          "name": "price",
          "type": "uint256"
        },
        {
          "name": "available",
          "type": "bool"
        }
      ],
      "name": "add",
      "outputs": [
        {
          "name": "",
          "type": "uint256"
        }
      ],
      "payable": true,
      "stateMutability": "payable",
      "type": "function"
    },
    {
      "constant": false,
      "inputs": [
        {
          "name": "index",
          "type": "uint256"
        }
      ],
      "name": "enableSale",
      "outputs": [],
      "payable": false,
      "stateMutability": "nonpayable",
      "type": "function"
    },
    {
      "constant": false,
      "inputs": [
        {
          "name": "index",
          "type": "uint256"
        }
      ],
      "name": "disableSale",
      "outputs": [],
      "payable": false,
      "stateMutability": "nonpayable",
      "type": "function"
    },
    {
      "constant": false,
      "inputs": [
        {
          "name": "index",
          "type": "uint256"
        }
      ],
      "name": "remove",
      "outputs": [],
      "payable": false,
      "stateMutability": "nonpayable",
      "type": "function"
    }
  ],
  "bytecode": "0x6080604052600060025534801561001557600080fd5b5033600160006101000a81548173ffffffffffffffffffffffffffffffffffffffff021916908373ffffffffffffffffffffffffffffffffffffffff160217905550611ae9806100666000396000f3fe608060405260043610610088576000357c010000000000000000000000000000000000000000000000000000000090048063187f026f1461008d5780632f63f34f146100b85780634cc82215146100f557806369fe0e2d1461011e578063985dee93146101475780639a1d3e4214610170578063b8a8f54f14610199578063fcfd84e2146101c9575b600080fd5b34801561009957600080fd5b506100a2610208565b6040516100af9190611961565b60405180910390f35b3480156100c457600080fd5b506100df60048036036100da9190810190611436565b61020e565b6040516100ec919061193f565b60405180910390f35b34801561010157600080fd5b5061011c60048036036101179190810190611436565b610356565b005b34801561012a57600080fd5b5061014560048036036101409190810190611436565b6107df565b005b34801561015357600080fd5b5061016e60048036036101699190810190611436565b610880565b005b34801561017c57600080fd5b5061019760048036036101929190810190611436565b610b17565b005b6101b360048036036101ae91908101906113ca565b610dad565b6040516101c09190611961565b60405180910390f35b3480156101d557600080fd5b506101f060048036036101eb9190810190611436565b611153565b6040516101ff93929190611861565b60405180910390f35b60025481565b610216611231565b6003805490508210151561025f576040517f08c379a00000000000000000000000000000000000000000000000000000000081526004016102569061189f565b60405180910390fd5b60038281548110151561026e57fe5b906000526020600020906003020160606040519081016040529081600082018054600181600116156101000203166002900480601f0160208091040260200160405190810160405280929190818152602001828054600181600116156101000203166002900480156103215780601f106102f657610100808354040283529160200191610321565b820191906000526020600020905b81548152906001019060200180831161030457829003601f168201915b50505050508152602001600182015481526020016002820160009054906101000a900460ff1615151515815250509050919050565b6005600881111561036357fe5b60ff166000809054906101000a900473ffffffffffffffffffffffffffffffffffffffff1673ffffffffffffffffffffffffffffffffffffffff166387d84b40336040518263ffffffff167c01000000000000000000000000000000000000000000000000000000000281526004016103dc91906117a6565b60206040518083038186803b1580156103f457600080fd5b505afa158015610408573d6000803e3d6000fd5b505050506040513d601f19601f8201168201806040525061042c919081019061145f565b60ff161480610510575060088081111561044257fe5b60ff166000809054906101000a900473ffffffffffffffffffffffffffffffffffffffff1673ffffffffffffffffffffffffffffffffffffffff166387d84b40336040518263ffffffff167c01000000000000000000000000000000000000000000000000000000000281526004016104bb91906117a6565b60206040518083038186803b1580156104d357600080fd5b505afa1580156104e7573d6000803e3d6000fd5b505050506040513d601f19601f8201168201806040525061050b919081019061145f565b60ff16145b151561051b57600080fd5b600060038281548110151561052c57fe5b90600052602060002090600302019050600081600001805460018160011615610100020316600290049050111515610599576040517f08c379a0000000000000000000000000000000000000000000000000000000008152600401610590906118df565b60405180910390fd5b6060816000018054600181600116156101000203166002900480601f0160208091040260200160405190810160405280929190818152602001828054600181600116156101000203166002900480156106335780601f1061060857610100808354040283529160200191610633565b820191906000526020600020905b81548152906001019060200180831161061657829003601f168201915b5050505050905060008090505b600460003373ffffffffffffffffffffffffffffffffffffffff1673ffffffffffffffffffffffffffffffffffffffff168152602001908152602001600020805490508110156107d95783600460003373ffffffffffffffffffffffffffffffffffffffff1673ffffffffffffffffffffffffffffffffffffffff168152602001908152602001600020828154811015156106d757fe5b906000526020600020015414156107cc57600460003373ffffffffffffffffffffffffffffffffffffffff1673ffffffffffffffffffffffffffffffffffffffff1681526020019081526020016000208181548110151561073457fe5b906000526020600020016000905560038481548110151561075157fe5b9060005260206000209060030201600080820160006107709190611255565b60018201600090556002820160006101000a81549060ff021916905550507fceaa045e39599678ab45541d98d8411edef03bdda22d60c417954cc08908793133836040516107bf929190611801565b60405180910390a16107d9565b8080600101915050610640565b50505050565b600160009054906101000a900473ffffffffffffffffffffffffffffffffffffffff1673ffffffffffffffffffffffffffffffffffffffff163373ffffffffffffffffffffffffffffffffffffffff1614151561083b57600080fd5b7f52eb1613beb6412b11cea9becaf38e04a648ef3ebae6a7aa4392de4dffe615606002548260405161086e92919061197c565b60405180910390a18060028190555050565b6005600881111561088d57fe5b60ff166000809054906101000a900473ffffffffffffffffffffffffffffffffffffffff1673ffffffffffffffffffffffffffffffffffffffff166387d84b40336040518263ffffffff167c010000000000000000000000000000000000000000000000000000000002815260040161090691906117a6565b60206040518083038186803b15801561091e57600080fd5b505afa158015610932573d6000803e3d6000fd5b505050506040513d601f19601f82011682018060405250610956919081019061145f565b60ff161480610a3a575060088081111561096c57fe5b60ff166000809054906101000a900473ffffffffffffffffffffffffffffffffffffffff1673ffffffffffffffffffffffffffffffffffffffff166387d84b40336040518263ffffffff167c01000000000000000000000000000000000000000000000000000000000281526004016109e591906117a6565b60206040518083038186803b1580156109fd57600080fd5b505afa158015610a11573d6000803e3d6000fd5b505050506040513d601f19601f82011682018060405250610a35919081019061145f565b60ff16145b1515610a4557600080fd5b6000600382815481101515610a5657fe5b906000526020600020906003020190508060020160009054906101000a900460ff16151515610aba576040517f08c379a0000000000000000000000000000000000000000000000000000000008152600401610ab1906118ff565b60405180910390fd5b60018160020160006101000a81548160ff0219169083151502179055507f71de54c4dfdd5cee66e97aaa42e1f6587bc605bd384d91bfa4ee246d57e29e373382600001604051610b0b929190611831565b60405180910390a15050565b60056008811115610b2457fe5b60ff166000809054906101000a900473ffffffffffffffffffffffffffffffffffffffff1673ffffffffffffffffffffffffffffffffffffffff166387d84b40336040518263ffffffff167c0100000000000000000000000000000000000000000000000000000000028152600401610b9d91906117a6565b60206040518083038186803b158015610bb557600080fd5b505afa158015610bc9573d6000803e3d6000fd5b505050506040513d601f19601f82011682018060405250610bed919081019061145f565b60ff161480610cd15750600880811115610c0357fe5b60ff166000809054906101000a900473ffffffffffffffffffffffffffffffffffffffff1673ffffffffffffffffffffffffffffffffffffffff166387d84b40336040518263ffffffff167c0100000000000000000000000000000000000000000000000000000000028152600401610c7c91906117a6565b60206040518083038186803b158015610c9457600080fd5b505afa158015610ca8573d6000803e3d6000fd5b505050506040513d601f19601f82011682018060405250610ccc919081019061145f565b60ff16145b1515610cdc57600080fd5b6000600382815481101515610ced57fe5b906000526020600020906003020190508060020160009054906101000a900460ff161515610d50576040517f08c379a0000000000000000000000000000000000000000000000000000000008152600401610d479061191f565b60405180910390fd5b60008160020160006101000a81548160ff0219169083151502179055507f361d5b5515cec6546402cf14ed1c0982f6bcd1b1fbe08cdb4ade6eb5b53910963382600001604051610da1929190611831565b60405180910390a15050565b600060056008811115610dbc57fe5b60ff166000809054906101000a900473ffffffffffffffffffffffffffffffffffffffff1673ffffffffffffffffffffffffffffffffffffffff166387d84b40336040518263ffffffff167c0100000000000000000000000000000000000000000000000000000000028152600401610e3591906117a6565b60206040518083038186803b158015610e4d57600080fd5b505afa158015610e61573d6000803e3d6000fd5b505050506040513d601f19601f82011682018060405250610e85919081019061145f565b60ff161480610f695750600880811115610e9b57fe5b60ff166000809054906101000a900473ffffffffffffffffffffffffffffffffffffffff1673ffffffffffffffffffffffffffffffffffffffff166387d84b40336040518263ffffffff167c0100000000000000000000000000000000000000000000000000000000028152600401610f1491906117a6565b60206040518083038186803b158015610f2c57600080fd5b505afa158015610f40573d6000803e3d6000fd5b505050506040513d601f19601f82011682018060405250610f64919081019061145f565b60ff16145b1515610f7457600080fd5b6002543410151515610fbb576040517f08c379a0000000000000000000000000000000000000000000000000000000008152600401610fb2906118bf565b60405180910390fd5b600360606040519081016040528087878080601f016020809104026020016040519081016040528093929190818152602001838380828437600081840152601f19601f82011690508083019250505050505050815260200185815260200184151581525090806001815401808255809150509060018203906000526020600020906003020160009091929091909150600082015181600001908051906020019061106692919061129d565b506020820151816001015560408201518160020160006101000a81548160ff02191690831515021790555050505060006001600380549050039050600460003373ffffffffffffffffffffffffffffffffffffffff1673ffffffffffffffffffffffffffffffffffffffff1681526020019081526020016000208190806001815401808255809150509060018203906000526020600020016000909192909190915055507f45714dc9f051f3105609179b7cc94300cfd25a2410635c263fe65f0a05222fa93387878760405161113f94939291906117c1565b60405180910390a180915050949350505050565b60038181548110151561116257fe5b9060005260206000209060030201600091509050806000018054600181600116156101000203166002900480601f01602080910402602001604051908101604052809291908181526020018280546001816001161561010002031660029004801561120e5780601f106111e35761010080835404028352916020019161120e565b820191906000526020600020905b8154815290600101906020018083116111f157829003601f168201915b5050505050908060010154908060020160009054906101000a900460ff16905083565b60606040519081016040528060608152602001600081526020016000151581525090565b50805460018160011615610100020316600290046000825580601f1061127b575061129a565b601f016020900490600052602060002090810190611299919061131d565b5b50565b828054600181600116156101000203166002900490600052602060002090601f016020900481019282601f106112de57805160ff191683800117855561130c565b8280016001018555821561130c579182015b8281111561130b5782518255916020019190600101906112f0565b5b509050611319919061131d565b5090565b61133f91905b8082111561133b576000816000905550600101611323565b5090565b90565b600061134e8235611a03565b905092915050565b60008083601f840112151561136a57600080fd5b8235905067ffffffffffffffff81111561138357600080fd5b60208301915083600182028301111561139b57600080fd5b9250929050565b60006113ae8235611a0f565b905092915050565b60006113c28251611a19565b905092915050565b600080600080606085870312156113e057600080fd5b600085013567ffffffffffffffff8111156113fa57600080fd5b61140687828801611356565b94509450506020611419878288016113a2565b925050604061142a87828801611342565b91505092959194509250565b60006020828403121561144857600080fd5b6000611456848285016113a2565b91505092915050565b60006020828403121561147157600080fd5b600061147f848285016113b6565b91505092915050565b61149181611a26565b82525050565b6114a0816119cd565b82525050565b60008284526020840193506114bc838584611a5c565b6114c583611a9e565b840190509392505050565b60006114db826119c2565b8084526114ef816020860160208601611a6b565b6114f881611a9e565b602085010191505092915050565b6000611511826119b7565b808452611525816020860160208601611a6b565b61152e81611a9e565b602085010191505092915050565b6000815460018116600081146115595760018114611579576115ba565b607f600283041680865260ff1983166020870152604086019350506115ba565b6002820480865260208601955061158f856119a5565b60005b828110156115b157815481890152600182019150602081019050611592565b80880195505050505b505092915050565b6000602182527f436f6d6d6f646974793a206e6f6e2d6578697374696e6720636f6d6d6f64697460208301527f79000000000000000000000000000000000000000000000000000000000000006040830152606082019050919050565b6000601e82527f436f6d6d6f646974793a206c69737420666565206e6f7420656e6f75676800006020830152604082019050919050565b6000601e82527f436f6d6d6f646974793a20636f6d6d6f64697479206e6f7420657869737400006020830152604082019050919050565b6000603382527f436f6d6d6f646974793a20636f6d6d6f64697479206e6f74206578697374206f60208301527f7220616c726561647920617661696c61626c65000000000000000000000000006040830152606082019050919050565b6000603582527f436f6d6d6f646974793a20636f6d6d6f64697479206e6f74206578697374206f60208301527f7220616c726561647920756e617661696c61626c6500000000000000000000006040830152606082019050919050565b600060608301600083015184820360008601526117648282611506565b91505060208301516117796020860182611797565b50604083015161178c6040860182611497565b508091505092915050565b6117a0816119f9565b82525050565b60006020820190506117bb6000830184611488565b92915050565b60006060820190506117d66000830187611488565b81810360208301526117e98185876114a6565b90506117f86040830184611797565b95945050505050565b60006040820190506118166000830185611488565b818103602083015261182881846114d0565b90509392505050565b60006040820190506118466000830185611488565b8181036020830152611858818461153c565b90509392505050565b6000606082019050818103600083015261187b8186611506565b905061188a6020830185611797565b6118976040830184611497565b949350505050565b600060208201905081810360008301526118b8816115c2565b9050919050565b600060208201905081810360008301526118d88161161f565b9050919050565b600060208201905081810360008301526118f881611656565b9050919050565b600060208201905081810360008301526119188161168d565b9050919050565b60006020820190508181036000830152611938816116ea565b9050919050565b600060208201905081810360008301526119598184611747565b905092915050565b60006020820190506119766000830184611797565b92915050565b60006040820190506119916000830185611797565b61199e6020830184611797565b9392505050565b60008160005260206000209050919050565b600081519050919050565b600081519050919050565b60008115159050919050565b600073ffffffffffffffffffffffffffffffffffffffff82169050919050565b6000819050919050565b60008115159050919050565b6000819050919050565b600060ff82169050919050565b6000611a3182611a38565b9050919050565b6000611a4382611a4a565b9050919050565b6000611a55826119d9565b9050919050565b82818337600083830152505050565b60005b83811015611a89578082015181840152602081019050611a6e565b83811115611a98576000848401525b50505050565b6000601f19601f830116905091905056fea265627a7a72305820044163015e31e8ef4b17e0752fcde7bb13b47ea09dd631c16a10dcc60b1570326c6578706572696d656e74616cf50037",
  "source": "pragma solidity ^0.5.1;\r\npragma experimental ABIEncoderV2;\r\n\r\nimport \"./Platform.sol\";\r\nimport \"./lib/Shared.sol\";\r\n\r\n/// parts for sale\r\ncontract Commodity {\r\n    Platform platform;\r\n    address private SUPERVISOR;\r\n    uint256 public LIST_FEE = 0 wei;\r\n\r\n    Shared.Detail[] public commodities;\r\n    mapping(address => uint256[]) merchants; // index in the commodities array\r\n\r\n    //\r\n\r\n    event commodityAdded(address merchant, string name, uint256 price);\r\n    event commodityEnabled(address merchant, string name);\r\n    event commodityDisabled(address merchant, string name);\r\n    event commodityRemoved(address merchant, string name);\r\n    event listFeeChange(uint256 from, uint256 to);\r\n\r\n    //\r\n\r\n    constructor() public {\r\n        SUPERVISOR = msg.sender;\r\n    }\r\n\r\n    modifier supervisor() {\r\n        require(msg.sender == SUPERVISOR);\r\n        _;\r\n    }\r\n\r\n    modifier merchant() {\r\n        require(\r\n            platform.queryEntity(msg.sender) ==\r\n                uint8(Shared.Entity.MANUFACTURER) ||\r\n                platform.queryEntity(msg.sender) ==\r\n                uint8(Shared.Entity.SUPPLIER)\r\n        );\r\n        _;\r\n    }\r\n\r\n    function setFee(uint256 _list_fee) external supervisor {\r\n        emit listFeeChange(LIST_FEE, _list_fee);\r\n\r\n        LIST_FEE = _list_fee;\r\n    }\r\n\r\n    function getCommodity(uint256 index)\r\n        public\r\n        view\r\n        returns (Shared.Detail memory)\r\n    {\r\n        require(\r\n            index < commodities.length,\r\n            \"Commodity: non-existing commodity\"\r\n        );\r\n        return commodities[index];\r\n    }\r\n\r\n    //\r\n\r\n    /// @dev list commodities for sale\r\n    function add(\r\n        string calldata name,\r\n        uint256 price,\r\n        bool available\r\n    ) external payable merchant returns (uint256) {\r\n        require(msg.value >= LIST_FEE, \"Commodity: list fee not enough\");\r\n\r\n        commodities.push(Shared.Detail(name, price, available));\r\n        uint256 index = commodities.length - 1;\r\n        merchants[msg.sender].push(index);\r\n\r\n        emit commodityAdded(msg.sender, name, price);\r\n        return index;\r\n    }\r\n\r\n    function enableSale(uint256 index) external merchant {\r\n        Shared.Detail storage detail = commodities[index];\r\n        require(\r\n            !detail.available,\r\n            \"Commodity: commodity not exist or already available\"\r\n        );\r\n\r\n        detail.available = true;\r\n\r\n        emit commodityEnabled(msg.sender, detail.name);\r\n    }\r\n\r\n    function disableSale(uint256 index) external merchant {\r\n        Shared.Detail storage detail = commodities[index];\r\n        require(\r\n            detail.available,\r\n            \"Commodity: commodity not exist or already unavailable\"\r\n        );\r\n\r\n        detail.available = false;\r\n\r\n        emit commodityDisabled(msg.sender, detail.name);\r\n    }\r\n\r\n    function remove(uint256 index) external merchant {\r\n        Shared.Detail storage detail = commodities[index];\r\n        require(\r\n            bytes(detail.name).length > 0,\r\n            \"Commodity: commodity not exist\"\r\n        );\r\n\r\n        string memory name = detail.name;\r\n        for (uint256 i = 0; i < merchants[msg.sender].length; i++) {\r\n            if (merchants[msg.sender][i] == index) {\r\n                // leave a gap\r\n                delete merchants[msg.sender][i];\r\n                delete commodities[index];\r\n\r\n                emit commodityRemoved(msg.sender, name);\r\n                break;\r\n            }\r\n        }\r\n    }\r\n}\r\n",
  "sourcePath": "C:\\Users\\Calvin\\Desktop\\path-project\\contracts\\Commodity.sol",
  "compiler": {
    "name": "solc",
    "version": "0.5.1+commit.c8a2cb62.Emscripten.clang"
  },
  "schemaVersion": "3.4.3",
  "updatedAt": "2021-09-25T09:18:37.691Z",
  "devdoc": {
    "methods": {
      "add(string,uint256,bool)": {
        "details": "list commodities for sale"
      }
    }
  },
  "userdoc": {
    "methods": {},
    "notice": "parts for sale"
  }
}