{
  "contractName": "Manufacturer",
  "abi": [
    {
      "inputs": [],
      "payable": false,
      "stateMutability": "nonpayable",
      "type": "constructor"
    },
    {
      "constant": false,
      "inputs": [
        {
          "name": "name",
          "type": "string"
        },
        {
          "name": "price",
          "type": "uint256"
        },
        {
          "name": "available",
          "type": "bool"
        }
      ],
      "name": "addCommodity",
      "outputs": [
        {
          "name": "",
          "type": "uint256"
        }
      ],
      "payable": true,
      "stateMutability": "payable",
      "type": "function"
    },
    {
      "constant": false,
      "inputs": [
        {
          "name": "index",
          "type": "uint256"
        },
        {
          "name": "due",
          "type": "uint256"
        }
      ],
      "name": "createOrder",
      "outputs": [
        {
          "name": "",
          "type": "uint256"
        }
      ],
      "payable": true,
      "stateMutability": "payable",
      "type": "function"
    },
    {
      "constant": false,
      "inputs": [
        {
          "name": "index",
          "type": "uint256"
        }
      ],
      "name": "takeOrder",
      "outputs": [],
      "payable": true,
      "stateMutability": "payable",
      "type": "function"
    },
    {
      "constant": false,
      "inputs": [
        {
          "name": "index",
          "type": "uint256"
        },
        {
          "name": "distributor",
          "type": "address"
        }
      ],
      "name": "fillOrder",
      "outputs": [
        {
          "name": "",
          "type": "uint256"
        }
      ],
      "payable": true,
      "stateMutability": "payable",
      "type": "function"
    },
    {
      "constant": false,
      "inputs": [
        {
          "name": "index",
          "type": "uint256"
        }
      ],
      "name": "completeOrder",
      "outputs": [],
      "payable": true,
      "stateMutability": "payable",
      "type": "function"
    }
  ],
  "bytecode": "0x608060405234801561001057600080fd5b5033600360006101000a81548173ffffffffffffffffffffffffffffffffffffffff021916908373ffffffffffffffffffffffffffffffffffffffff160217905550610cec806100616000396000f3fe608060405260043610610067576000357c0100000000000000000000000000000000000000000000000000000000900480633b5d1a241461006c5780634aaecf541461008857806379109baa146100b8578063b6adaaff146100e8578063f32c1b8214610104575b600080fd5b6100866004803603610081919081019061097b565b610134565b005b6100a2600480360361009d91908101906109cd565b6101df565b6040516100af9190610b3e565b60405180910390f35b6100d260048036036100cd9190810190610a09565b610457565b6040516100df9190610b3e565b60405180910390f35b61010260048036036100fd919081019061097b565b61052b565b005b61011e600480360361011991908101906108e6565b610622565b60405161012b9190610b3e565b60405180910390f35b6000809054906101000a900473ffffffffffffffffffffffffffffffffffffffff1673ffffffffffffffffffffffffffffffffffffffff16633b5d1a24826040518263ffffffff167c01000000000000000000000000000000000000000000000000000000000281526004016101aa9190610b3e565b600060405180830381600087803b1580156101c457600080fd5b505af11580156101d8573d6000803e3d6000fd5b5050505050565b600080600260009054906101000a900473ffffffffffffffffffffffffffffffffffffffff1673ffffffffffffffffffffffffffffffffffffffff16636a627842336040518263ffffffff167c01000000000000000000000000000000000000000000000000000000000281526004016102599190610aba565b602060405180830381600087803b15801561027357600080fd5b505af1158015610287573d6000803e3d6000fd5b505050506040513d601f19601f820116820180604052506102ab91908101906109a4565b9050600260009054906101000a900473ffffffffffffffffffffffffffffffffffffffff1673ffffffffffffffffffffffffffffffffffffffff1663095ea7b38460016040518363ffffffff167c0100000000000000000000000000000000000000000000000000000000028152600401610327929190610ad5565b600060405180830381600087803b15801561034157600080fd5b505af1158015610355573d6000803e3d6000fd5b505050506103616106fd565b6000809054906101000a900473ffffffffffffffffffffffffffffffffffffffff1673ffffffffffffffffffffffffffffffffffffffff1663d09ef241866040518263ffffffff167c01000000000000000000000000000000000000000000000000000000000281526004016103d79190610b3e565b60e06040518083038186803b1580156103ef57600080fd5b505afa158015610403573d6000803e3d6000fd5b505050506040513d601f19601f820116820180604052506104279190810190610952565b905060038160c00190600781111561043b57fe5b9081600781111561044857fe5b81525050819250505092915050565b60008060009054906101000a900473ffffffffffffffffffffffffffffffffffffffff1673ffffffffffffffffffffffffffffffffffffffff166379109baa84846040518363ffffffff167c01000000000000000000000000000000000000000000000000000000000281526004016104d1929190610b59565b602060405180830381600087803b1580156104eb57600080fd5b505af11580156104ff573d6000803e3d6000fd5b505050506040513d601f19601f8201168201806040525061052391908101906109a4565b905092915050565b6105336106fd565b6000809054906101000a900473ffffffffffffffffffffffffffffffffffffffff1673ffffffffffffffffffffffffffffffffffffffff1663d09ef241836040518263ffffffff167c01000000000000000000000000000000000000000000000000000000000281526004016105a99190610b3e565b60e06040518083038186803b1580156105c157600080fd5b505afa1580156105d5573d6000803e3d6000fd5b505050506040513d601f19601f820116820180604052506105f99190810190610952565b905060058160c00190600781111561060d57fe5b9081600781111561061a57fe5b815250505050565b6000600160009054906101000a900473ffffffffffffffffffffffffffffffffffffffff1673ffffffffffffffffffffffffffffffffffffffff1663b8a8f54f868686866040518563ffffffff167c01000000000000000000000000000000000000000000000000000000000281526004016106a19493929190610afe565b602060405180830381600087803b1580156106bb57600080fd5b505af11580156106cf573d6000803e3d6000fd5b505050506040513d601f19601f820116820180604052506106f391908101906109a4565b9050949350505050565b60e060405190810160405280600073ffffffffffffffffffffffffffffffffffffffff16815260200160008152602001600081526020016000815260200160008152602001600073ffffffffffffffffffffffffffffffffffffffff1681526020016000600781111561076c57fe5b81525090565b600061077e8235610bf7565b905092915050565b60006107928251610c09565b905092915050565b60006107a68235610c1b565b905092915050565b60006107ba8251610c27565b905092915050565b60008083601f84011215156107d657600080fd5b8235905067ffffffffffffffff8111156107ef57600080fd5b60208301915083600182028301111561080757600080fd5b9250929050565b600060e0828403121561082057600080fd5b61082a60e0610b82565b9050600061083a84828501610786565b600083015250602061084e848285016108d2565b6020830152506040610862848285016108d2565b6040830152506060610876848285016108d2565b606083015250608061088a848285016108d2565b60808301525060a061089e84828501610786565b60a08301525060c06108b2848285016107ae565b60c08301525092915050565b60006108ca8235610c40565b905092915050565b60006108de8251610c40565b905092915050565b600080600080606085870312156108fc57600080fd5b600085013567ffffffffffffffff81111561091657600080fd5b610922878288016107c2565b94509450506020610935878288016108be565b92505060406109468782880161079a565b91505092959194509250565b600060e0828403121561096457600080fd5b60006109728482850161080e565b91505092915050565b60006020828403121561098d57600080fd5b600061099b848285016108be565b91505092915050565b6000602082840312156109b657600080fd5b60006109c4848285016108d2565b91505092915050565b600080604083850312156109e057600080fd5b60006109ee858286016108be565b92505060206109ff85828601610772565b9150509250929050565b60008060408385031215610a1c57600080fd5b6000610a2a858286016108be565b9250506020610a3b858286016108be565b9150509250929050565b610a4e81610c4a565b82525050565b610a5d81610baf565b82525050565b610a6c81610bc1565b82525050565b610a7b81610c5c565b82525050565b6000828452602084019350610a97838584610c92565b610aa083610ca1565b840190509392505050565b610ab481610bed565b82525050565b6000602082019050610acf6000830184610a45565b92915050565b6000604082019050610aea6000830185610a54565b610af76020830184610a72565b9392505050565b60006060820190508181036000830152610b19818688610a81565b9050610b286020830185610aab565b610b356040830184610a63565b95945050505050565b6000602082019050610b536000830184610aab565b92915050565b6000604082019050610b6e6000830185610aab565b610b7b6020830184610aab565b9392505050565b6000604051905081810181811067ffffffffffffffff82111715610ba557600080fd5b8060405250919050565b6000610bba82610bcd565b9050919050565b60008115159050919050565b600073ffffffffffffffffffffffffffffffffffffffff82169050919050565b6000819050919050565b6000610c0282610bcd565b9050919050565b6000610c1482610bcd565b9050919050565b60008115159050919050565b6000600882101515610c3857600080fd5b819050919050565b6000819050919050565b6000610c5582610c6e565b9050919050565b6000610c6782610bed565b9050919050565b6000610c7982610c80565b9050919050565b6000610c8b82610bcd565b9050919050565b82818337600083830152505050565b6000601f19601f830116905091905056fea265627a7a723058208ca59d39f27cda6a5457346ef8843375627a2d221e875698c287cb7de8f58f006c6578706572696d656e74616cf50037",
  "source": "pragma solidity ^0.5.1;\r\npragma experimental ABIEncoderV2;\r\n\r\nimport \"../Platform.sol\";\r\nimport \"../Commodity.sol\";\r\nimport \"../lib/Shared.sol\";\r\nimport \"../Part.sol\";\r\n\r\ncontract Manufacturer {\r\n    Platform plt;\r\n    Commodity CMD;\r\n    Part pt;\r\n    address private supervisor;\r\n\r\n    constructor() public {\r\n        supervisor = msg.sender;\r\n    }\r\n\r\n    function addCommodity(\r\n        string calldata name,\r\n        uint256 price,\r\n        bool available\r\n    ) external payable returns (uint256) {\r\n        return CMD.add(name, price, available);\r\n    }\r\n\r\n    function createOrder(uint256 index, uint256 due)\r\n        external\r\n        payable\r\n        returns (uint256)\r\n    {\r\n        return plt.createOrder(index, due);\r\n    }\r\n\r\n    function takeOrder(uint256 index) external payable {\r\n        plt.takeOrder(index);\r\n    }\r\n\r\n    function fillOrder(uint256 index, address distributor)\r\n        external\r\n        payable\r\n        returns (uint256)\r\n    {\r\n        uint256 tokenId = pt.mint(msg.sender);\r\n        pt.approve(distributor, 1);\r\n        Shared.Order memory order = plt.getOrder(index);\r\n        order.status = Shared.OrderStatus.FILLED;\r\n        return tokenId;\r\n    }\r\n\r\n    function completeOrder(uint256 index) external payable {\r\n        Shared.Order memory order = plt.getOrder(index);\r\n        order.status = Shared.OrderStatus.COMPLETED;\r\n    }\r\n}\r\n",
  "sourcePath": "C:\\Users\\Calvin\\Desktop\\path-project\\contracts\\entity\\Manufacturer.sol",
  "compiler": {
    "name": "solc",
    "version": "0.5.1+commit.c8a2cb62.Emscripten.clang"
  },
  "schemaVersion": "3.4.3",
  "updatedAt": "2021-11-16T09:37:30.086Z",
  "devdoc": {
    "methods": {}
  },
  "userdoc": {
    "methods": {}
  }
}