{
  "contractName": "Platform",
  "abi": [
    {
      "constant": true,
      "inputs": [
        {
          "name": "",
          "type": "address"
        }
      ],
      "name": "entities",
      "outputs": [
        {
          "name": "",
          "type": "uint8"
        }
      ],
      "payable": false,
      "stateMutability": "view",
      "type": "function"
    },
    {
      "constant": true,
      "inputs": [],
      "name": "MARGIN_RATE",
      "outputs": [
        {
          "name": "",
          "type": "uint256"
        }
      ],
      "payable": false,
      "stateMutability": "view",
      "type": "function"
    },
    {
      "constant": true,
      "inputs": [],
      "name": "TAKER_FEE",
      "outputs": [
        {
          "name": "",
          "type": "uint256"
        }
      ],
      "payable": false,
      "stateMutability": "view",
      "type": "function"
    },
    {
      "constant": true,
      "inputs": [
        {
          "name": "",
          "type": "uint256"
        }
      ],
      "name": "orders",
      "outputs": [
        {
          "name": "creator",
          "type": "address"
        },
        {
          "name": "due",
          "type": "uint256"
        },
        {
          "name": "commodity",
          "type": "uint256"
        },
        {
          "name": "price",
          "type": "uint256"
        },
        {
          "name": "margin",
          "type": "uint256"
        },
        {
          "name": "filler",
          "type": "address"
        },
        {
          "name": "status",
          "type": "uint8"
        }
      ],
      "payable": false,
      "stateMutability": "view",
      "type": "function"
    },
    {
      "constant": true,
      "inputs": [],
      "name": "MAKER_FEE",
      "outputs": [
        {
          "name": "",
          "type": "uint256"
        }
      ],
      "payable": false,
      "stateMutability": "view",
      "type": "function"
    },
    {
      "inputs": [],
      "payable": false,
      "stateMutability": "nonpayable",
      "type": "constructor"
    },
    {
      "anonymous": false,
      "inputs": [
        {
          "indexed": false,
          "name": "creator",
          "type": "address"
        },
        {
          "indexed": false,
          "name": "due",
          "type": "uint256"
        },
        {
          "indexed": false,
          "name": "commodity",
          "type": "uint256"
        }
      ],
      "name": "orderCreated",
      "type": "event"
    },
    {
      "anonymous": false,
      "inputs": [
        {
          "indexed": false,
          "name": "filler",
          "type": "address"
        },
        {
          "indexed": false,
          "name": "index",
          "type": "uint256"
        }
      ],
      "name": "orderTaken",
      "type": "event"
    },
    {
      "anonymous": false,
      "inputs": [
        {
          "indexed": false,
          "name": "filler",
          "type": "address"
        },
        {
          "indexed": false,
          "name": "index",
          "type": "uint256"
        }
      ],
      "name": "orderFilled",
      "type": "event"
    },
    {
      "anonymous": false,
      "inputs": [
        {
          "indexed": false,
          "name": "filler",
          "type": "address"
        },
        {
          "indexed": false,
          "name": "index",
          "type": "uint256"
        }
      ],
      "name": "orderStoked",
      "type": "event"
    },
    {
      "anonymous": false,
      "inputs": [
        {
          "indexed": false,
          "name": "creator",
          "type": "address"
        },
        {
          "indexed": false,
          "name": "filler",
          "type": "address"
        },
        {
          "indexed": false,
          "name": "index",
          "type": "uint256"
        }
      ],
      "name": "orderCompleted",
      "type": "event"
    },
    {
      "anonymous": false,
      "inputs": [
        {
          "indexed": false,
          "name": "creator",
          "type": "address"
        },
        {
          "indexed": false,
          "name": "index",
          "type": "uint256"
        }
      ],
      "name": "orderCanceled",
      "type": "event"
    },
    {
      "anonymous": false,
      "inputs": [
        {
          "indexed": false,
          "name": "creator",
          "type": "address"
        },
        {
          "indexed": false,
          "name": "index",
          "type": "uint256"
        },
        {
          "indexed": false,
          "name": "due",
          "type": "uint256"
        }
      ],
      "name": "orderOverdued",
      "type": "event"
    },
    {
      "anonymous": false,
      "inputs": [
        {
          "indexed": false,
          "name": "from",
          "type": "uint256"
        },
        {
          "indexed": false,
          "name": "to",
          "type": "uint256"
        }
      ],
      "name": "makerFeeChange",
      "type": "event"
    },
    {
      "anonymous": false,
      "inputs": [
        {
          "indexed": false,
          "name": "from",
          "type": "uint256"
        },
        {
          "indexed": false,
          "name": "to",
          "type": "uint256"
        }
      ],
      "name": "takerFeeChange",
      "type": "event"
    },
    {
      "anonymous": false,
      "inputs": [
        {
          "indexed": false,
          "name": "from",
          "type": "uint256"
        },
        {
          "indexed": false,
          "name": "to",
          "type": "uint256"
        }
      ],
      "name": "marginRateChange",
      "type": "event"
    },
    {
      "constant": true,
      "inputs": [
        {
          "name": "addr",
          "type": "address"
        }
      ],
      "name": "queryEntity",
      "outputs": [
        {
          "name": "",
          "type": "uint8"
        }
      ],
      "payable": false,
      "stateMutability": "view",
      "type": "function"
    },
    {
      "constant": false,
      "inputs": [
        {
          "name": "addr",
          "type": "address"
        },
        {
          "name": "entity",
          "type": "uint8"
        }
      ],
      "name": "register",
      "outputs": [],
      "payable": false,
      "stateMutability": "nonpayable",
      "type": "function"
    },
    {
      "constant": false,
      "inputs": [
        {
          "name": "mf",
          "type": "uint256"
        }
      ],
      "name": "setMakerFee",
      "outputs": [],
      "payable": false,
      "stateMutability": "nonpayable",
      "type": "function"
    },
    {
      "constant": false,
      "inputs": [
        {
          "name": "tf",
          "type": "uint256"
        }
      ],
      "name": "setTakerFee",
      "outputs": [],
      "payable": false,
      "stateMutability": "nonpayable",
      "type": "function"
    },
    {
      "constant": false,
      "inputs": [
        {
          "name": "margin_rate",
          "type": "uint256"
        }
      ],
      "name": "setMarginRate",
      "outputs": [],
      "payable": false,
      "stateMutability": "nonpayable",
      "type": "function"
    },
    {
      "constant": false,
      "inputs": [
        {
          "name": "index",
          "type": "uint256"
        },
        {
          "name": "due",
          "type": "uint256"
        }
      ],
      "name": "createOrder",
      "outputs": [
        {
          "name": "",
          "type": "uint256"
        }
      ],
      "payable": true,
      "stateMutability": "payable",
      "type": "function"
    },
    {
      "constant": false,
      "inputs": [
        {
          "name": "index",
          "type": "uint256"
        }
      ],
      "name": "takeOrder",
      "outputs": [],
      "payable": true,
      "stateMutability": "payable",
      "type": "function"
    },
    {
      "constant": false,
      "inputs": [
        {
          "name": "index",
          "type": "uint256"
        }
      ],
      "name": "cancelOrder",
      "outputs": [],
      "payable": false,
      "stateMutability": "nonpayable",
      "type": "function"
    },
    {
      "constant": false,
      "inputs": [
        {
          "name": "index",
          "type": "uint256"
        }
      ],
      "name": "fillOrder",
      "outputs": [],
      "payable": true,
      "stateMutability": "payable",
      "type": "function"
    },
    {
      "constant": false,
      "inputs": [
        {
          "name": "index",
          "type": "uint256"
        },
        {
          "name": "stocker",
          "type": "address"
        }
      ],
      "name": "stockOrder",
      "outputs": [],
      "payable": true,
      "stateMutability": "payable",
      "type": "function"
    },
    {
      "constant": false,
      "inputs": [
        {
          "name": "index",
          "type": "uint256"
        }
      ],
      "name": "completeOrder",
      "outputs": [],
      "payable": true,
      "stateMutability": "payable",
      "type": "function"
    }
  ],
  "bytecode": "0x608060405260006002556000600355600060045534801561001f57600080fd5b506007600881111561002d57fe5b600560003373ffffffffffffffffffffffffffffffffffffffff1673ffffffffffffffffffffffffffffffffffffffff16815260200190815260200160002060006101000a81548160ff021916908360ff1602179055506123a5806100936000396000f3fe6080604052600436106100e0576000357c01000000000000000000000000000000000000000000000000000000009004806307e49598146100e55780631d8ee48a1461010e5780633b5d1a241461014b578063514fcac714610167578063577509c11461019057806367b830ad146101bb5780636eff3e8b146101d757806379109baa1461020057806380cbdf831461023057806387d84b401461024c5780639fa5bc2414610289578063a85c38ef146102b4578063b537889c146102f7578063b6adaaff14610322578063b8bd3dbb1461033e578063f1cca8aa14610367575b600080fd5b3480156100f157600080fd5b5061010c600480360361010791908101906119fa565b610390565b005b34801561011a57600080fd5b50610135600480360361013091908101906119d1565b610458565b60405161014291906121cc565b60405180910390f35b61016560048036036101609190810190611a77565b610478565b005b34801561017357600080fd5b5061018e60048036036101899190810190611a77565b610651565b005b34801561019c57600080fd5b506101a56108eb565b6040516101b29190612188565b60405180910390f35b6101d560048036036101d09190810190611a77565b6108f1565b005b3480156101e357600080fd5b506101fe60048036036101f99190810190611a77565b610ad4565b005b61021a60048036036102159190810190611adc565b610bd9565b6040516102279190612188565b60405180910390f35b61024a60048036036102459190810190611aa0565b610fe0565b005b34801561025857600080fd5b50610273600480360361026e91908101906119d1565b611230565b60405161028091906121cc565b60405180910390f35b34801561029557600080fd5b5061029e611286565b6040516102ab9190612188565b60405180910390f35b3480156102c057600080fd5b506102db60048036036102d69190810190611a77565b61128c565b6040516102ee9796959493929190611f97565b60405180910390f35b34801561030357600080fd5b5061030c61132a565b6040516103199190612188565b60405180910390f35b61033c60048036036103379190810190611a77565b611330565b005b34801561034a57600080fd5b5061036560048036036103609190810190611a77565b6115f6565b005b34801561037357600080fd5b5061038e60048036036103899190810190611a77565b6116a7565b005b6007600881111561039d57fe5b60ff16600560003373ffffffffffffffffffffffffffffffffffffffff1673ffffffffffffffffffffffffffffffffffffffff16815260200190815260200160002060009054906101000a900460ff1660ff161415156103fc57600080fd5b80600560008473ffffffffffffffffffffffffffffffffffffffff1673ffffffffffffffffffffffffffffffffffffffff16815260200190815260200160002060006101000a81548160ff021916908360ff1602179055505050565b60056020528060005260406000206000915054906101000a900460ff1681565b6000600560003373ffffffffffffffffffffffffffffffffffffffff1673ffffffffffffffffffffffffffffffffffffffff16815260200190815260200160002060009054906101000a900460ff1660ff161115156104d657600080fd5b60006001828154811015156104e757fe5b90600052602060002090600602019050600354341015151561053e576040517f08c379a000000000000000000000000000000000000000000000000000000000815260040161053590612048565b60405180910390fd5b80600101544211156105ab5760078160050160146101000a81548160ff0219169083600781111561056b57fe5b02179055506040517f08c379a00000000000000000000000000000000000000000000000000000000081526004016105a290612088565b60405180910390fd5b338160050160006101000a81548173ffffffffffffffffffffffffffffffffffffffff021916908373ffffffffffffffffffffffffffffffffffffffff16021790555060028160050160146101000a81548160ff0219169083600781111561060f57fe5b02179055507f74011bf310e48cabc001c3106a23476c000c959c7089e053009bf9dabe00ab1e3383604051610645929190611f37565b60405180910390a15050565b6000600560003373ffffffffffffffffffffffffffffffffffffffff1673ffffffffffffffffffffffffffffffffffffffff16815260200190815260200160002060009054906101000a900460ff1660ff161115156106af57600080fd5b60006001828154811015156106c057fe5b906000526020600020906006020190508060000160009054906101000a900473ffffffffffffffffffffffffffffffffffffffff1673ffffffffffffffffffffffffffffffffffffffff163373ffffffffffffffffffffffffffffffffffffffff16141515610764576040517f08c379a000000000000000000000000000000000000000000000000000000000815260040161075b906120c8565b60405180910390fd5b6001600781111561077157fe5b8160050160149054906101000a900460ff16600781111561078e57fe5b1415156107d0576040517f08c379a00000000000000000000000000000000000000000000000000000000081526004016107c790612148565b60405180910390fd5b806001015442111561083d5760078160050160146101000a81548160ff021916908360078111156107fd57fe5b02179055506040517f08c379a000000000000000000000000000000000000000000000000000000000815260040161083490612088565b60405180910390fd5b60068160050160146101000a81548160ff0219169083600781111561085e57fe5b02179055503373ffffffffffffffffffffffffffffffffffffffff166108fc82600401549081150290604051600060405180830381858888f193505050501580156108ad573d6000803e3d6000fd5b507f351652748d8287004f56708faf022e0bda08f7a4a3f2c937b6bed9b75d5e943233836040516108df929190611f37565b60405180910390a15050565b60045481565b6000600560003373ffffffffffffffffffffffffffffffffffffffff1673ffffffffffffffffffffffffffffffffffffffff16815260200190815260200160002060009054906101000a900460ff1660ff1611151561094f57600080fd5b600060018281548110151561096057fe5b906000526020600020906006020190508060050160009054906101000a900473ffffffffffffffffffffffffffffffffffffffff1673ffffffffffffffffffffffffffffffffffffffff163373ffffffffffffffffffffffffffffffffffffffff16141515610a04576040517f08c379a00000000000000000000000000000000000000000000000000000000081526004016109fb906120c8565b60405180910390fd5b8060010154421115610a715760078160050160146101000a81548160ff02191690836007811115610a3157fe5b02179055506040517f08c379a0000000000000000000000000000000000000000000000000000000008152600401610a6890612088565b60405180910390fd5b60038160050160146101000a81548160ff02191690836007811115610a9257fe5b02179055507f2750733e82a3be1f095ba4fcc7e876a16ac7439832c3e54398b5b9670e5d800b3383604051610ac8929190611f37565b60405180910390a15050565b60076008811115610ae157fe5b60ff16600560003373ffffffffffffffffffffffffffffffffffffffff1673ffffffffffffffffffffffffffffffffffffffff16815260200190815260200160002060009054906101000a900460ff1660ff16141515610b4057600080fd5b60008110158015610b5357506103e88111155b1515610b94576040517f08c379a0000000000000000000000000000000000000000000000000000000008152600401610b8b90612068565b60405180910390fd5b7f858c36623289061a635ff4b7ca945e6031392a1f03cc9d27ebd7bb43c3c7521460045482604051610bc79291906121a3565b60405180910390a18060048190555050565b600080600560003373ffffffffffffffffffffffffffffffffffffffff1673ffffffffffffffffffffffffffffffffffffffff16815260200190815260200160002060009054906101000a900460ff1660ff16111515610c3857600080fd5b6002543410151515610c7f576040517f08c379a0000000000000000000000000000000000000000000000000000000008152600401610c7690612028565b60405180910390fd5b4282111515610cc3576040517f08c379a0000000000000000000000000000000000000000000000000000000008152600401610cba906120e8565b60405180910390fd5b610ccb61187b565b6000809054906101000a900473ffffffffffffffffffffffffffffffffffffffff1673ffffffffffffffffffffffffffffffffffffffff16632f63f34f856040518263ffffffff167c0100000000000000000000000000000000000000000000000000000000028152600401610d419190612188565b60006040518083038186803b158015610d5957600080fd5b505afa158015610d6d573d6000803e3d6000fd5b505050506040513d6000823e3d601f19601f82011682018060405250610d969190810190611a36565b90506000816020015190506000610dcc6103e8610dbe6004548561175890919063ffffffff16565b6117cc90919063ffffffff16565b9050806002543403111515610e16576040517f08c379a0000000000000000000000000000000000000000000000000000000008152600401610e0d90612168565b60405180910390fd5b600160e0604051908101604052803373ffffffffffffffffffffffffffffffffffffffff168152602001428152602001888152602001848152602001838152602001600073ffffffffffffffffffffffffffffffffffffffff16815260200160016007811115610e8257fe5b8152509080600181540180825580915050906001820390600052602060002090600602016000909192909190915060008201518160000160006101000a81548173ffffffffffffffffffffffffffffffffffffffff021916908373ffffffffffffffffffffffffffffffffffffffff1602179055506020820151816001015560408201518160020155606082015181600301556080820151816004015560a08201518160050160006101000a81548173ffffffffffffffffffffffffffffffffffffffff021916908373ffffffffffffffffffffffffffffffffffffffff16021790555060c08201518160050160146101000a81548160ff02191690836007811115610f8a57fe5b02179055505050507f51f093a1bdbdfb1051ee9ac02c91a190e9ce1509db9b1d4cd11c090ecb55b162338688604051610fc593929190611f60565b60405180910390a16001808054905003935050505092915050565b6000600560003373ffffffffffffffffffffffffffffffffffffffff1673ffffffffffffffffffffffffffffffffffffffff16815260200190815260200160002060009054906101000a900460ff1660ff1611151561103e57600080fd5b600060018381548110151561104f57fe5b906000526020600020906006020190508060050160009054906101000a900473ffffffffffffffffffffffffffffffffffffffff1673ffffffffffffffffffffffffffffffffffffffff163373ffffffffffffffffffffffffffffffffffffffff161415156110f3576040517f08c379a00000000000000000000000000000000000000000000000000000000081526004016110ea906120c8565b60405180910390fd5b6003600881111561110057fe5b60ff16600560008473ffffffffffffffffffffffffffffffffffffffff1673ffffffffffffffffffffffffffffffffffffffff16815260200190815260200160002060009054906101000a900460ff1660ff1614151561115f57600080fd5b80600101544211156111cc5760078160050160146101000a81548160ff0219169083600781111561118c57fe5b02179055506040517f08c379a00000000000000000000000000000000000000000000000000000000081526004016111c390612088565b60405180910390fd5b60048160050160146101000a81548160ff021916908360078111156111ed57fe5b02179055507f59750aa9ca7f360fd4dcbc68bb2996c5704e1184c62e1cd4e8afcfc6f735154f3384604051611223929190611f37565b60405180910390a1505050565b6000600560008373ffffffffffffffffffffffffffffffffffffffff1673ffffffffffffffffffffffffffffffffffffffff16815260200190815260200160002060009054906101000a900460ff169050919050565b60035481565b60018181548110151561129b57fe5b90600052602060002090600602016000915090508060000160009054906101000a900473ffffffffffffffffffffffffffffffffffffffff16908060010154908060020154908060030154908060040154908060050160009054906101000a900473ffffffffffffffffffffffffffffffffffffffff16908060050160149054906101000a900460ff16905087565b60025481565b6000600560003373ffffffffffffffffffffffffffffffffffffffff1673ffffffffffffffffffffffffffffffffffffffff16815260200190815260200160002060009054906101000a900460ff1660ff1611151561138e57600080fd5b600060018281548110151561139f57fe5b906000526020600020906006020190508060000160009054906101000a900473ffffffffffffffffffffffffffffffffffffffff1673ffffffffffffffffffffffffffffffffffffffff163373ffffffffffffffffffffffffffffffffffffffff16141515611443576040517f08c379a000000000000000000000000000000000000000000000000000000000815260040161143a906120c8565b60405180910390fd5b6005600781111561145057fe5b8160050160149054906101000a900460ff16600781111561146d57fe5b141515156114b0576040517f08c379a00000000000000000000000000000000000000000000000000000000081526004016114a7906120a8565b60405180910390fd5b8060040154816003015403341415156114fe576040517f08c379a00000000000000000000000000000000000000000000000000000000081526004016114f590612108565b60405180910390fd5b60058160050160146101000a81548160ff0219169083600781111561151f57fe5b02179055508060050160009054906101000a900473ffffffffffffffffffffffffffffffffffffffff1673ffffffffffffffffffffffffffffffffffffffff166108fc82600301549081150290604051600060405180830381858888f19350505050158015611592573d6000803e3d6000fd5b507f2fac3148f52010de0f0f3c61efffc16d4579dfd8dff8c7e4ec70706f80fee150338260050160009054906101000a900473ffffffffffffffffffffffffffffffffffffffff16846040516115ea93929190611f00565b60405180910390a15050565b6007600881111561160357fe5b60ff16600560003373ffffffffffffffffffffffffffffffffffffffff1673ffffffffffffffffffffffffffffffffffffffff16815260200190815260200160002060009054906101000a900460ff1660ff1614151561166257600080fd5b7f0267970623ba778540e92264d7d7bd5f10fee880f05b68bb7c93e0967c888934600254826040516116959291906121a3565b60405180910390a18060028190555050565b600760088111156116b457fe5b60ff16600560003373ffffffffffffffffffffffffffffffffffffffff1673ffffffffffffffffffffffffffffffffffffffff16815260200190815260200160002060009054906101000a900460ff1660ff1614151561171357600080fd5b7fe13b566d06967ecd5037ab33447d6435f92094cf316fc63e22f03f86c2bbdf01600354826040516117469291906121a3565b60405180910390a18060038190555050565b60008083141561176b57600090506117c6565b6000828402905082848281151561177e57fe5b041415156117c1576040517f08c379a00000000000000000000000000000000000000000000000000000000081526004016117b890612128565b60405180910390fd5b809150505b92915050565b600061180e83836040805190810160405280601a81526020017f536166654d6174683a206469766973696f6e206279207a65726f000000000000815250611816565b905092915050565b60008083118290151561185f576040517f08c379a00000000000000000000000000000000000000000000000000000000081526004016118569190612006565b60405180910390fd5b506000838581151561186d57fe5b049050809150509392505050565b60606040519081016040528060608152602001600081526020016000151581525090565b60006118ab82356122aa565b905092915050565b60006118bf82516122bc565b905092915050565b600082601f83011215156118da57600080fd5b81516118ed6118e882612214565b6121e7565b9150808252602083016020830185838301111561190957600080fd5b611914838284612327565b50505092915050565b60006060828403121561192f57600080fd5b61193960606121e7565b9050600082015167ffffffffffffffff81111561195557600080fd5b611961848285016118c7565b6000830152506020611975848285016119a9565b6020830152506040611989848285016118b3565b60408301525092915050565b60006119a182356122c8565b905092915050565b60006119b582516122c8565b905092915050565b60006119c982356122d2565b905092915050565b6000602082840312156119e357600080fd5b60006119f18482850161189f565b91505092915050565b60008060408385031215611a0d57600080fd5b6000611a1b8582860161189f565b9250506020611a2c858286016119bd565b9150509250929050565b600060208284031215611a4857600080fd5b600082015167ffffffffffffffff811115611a6257600080fd5b611a6e8482850161191d565b91505092915050565b600060208284031215611a8957600080fd5b6000611a9784828501611995565b91505092915050565b60008060408385031215611ab357600080fd5b6000611ac185828601611995565b9250506020611ad28582860161189f565b9150509250929050565b60008060408385031215611aef57600080fd5b6000611afd85828601611995565b9250506020611b0e85828601611995565b9150509250929050565b611b21816122df565b82525050565b611b308161224b565b82525050565b611b3f816122f1565b82525050565b6000611b5082612240565b808452611b64816020860160208601612327565b611b6d8161235a565b602085010191505092915050565b6000602382527f506c6174666f726d3a206d616b65206f7264657220666565206e6f7420656e6f60208301527f75676800000000000000000000000000000000000000000000000000000000006040830152606082019050919050565b6000602382527f506c6174666f726d3a2074616b65206f7264657220666565206e6f7420656e6f60208301527f75676800000000000000000000000000000000000000000000000000000000006040830152606082019050919050565b6000602c82527f506c6174666f726d3a206d617267696e2072617465206f7574206f662072616e60208301527f6765205b302c20313030305d00000000000000000000000000000000000000006040830152606082019050919050565b6000601782527f506c6174666f726d3a206f72646572206f7665726475650000000000000000006020830152604082019050919050565b6000602182527f506c6174666f726d3a206f7264657220616c726561647920636f6d706c65746560208301527f64000000000000000000000000000000000000000000000000000000000000006040830152606082019050919050565b6000601982527f506c6174666f726d3a206f72646572206e6f7420796f757273000000000000006020830152604082019050919050565b6000602182527f506c6174666f726d3a206d616c666f726d656420706172616d6574657220647560208301527f65000000000000000000000000000000000000000000000000000000000000006040830152606082019050919050565b6000601c82527f506c6174666f726d3a207061796d656e74206e6f7420656e6f756768000000006020830152604082019050919050565b6000602182527f536166654d6174683a206d756c7469706c69636174696f6e206f766572666c6f60208301527f77000000000000000000000000000000000000000000000000000000000000006040830152606082019050919050565b6000601d82527f506c6174666f726d3a2063616e6e6f742063616e63656c206f726465720000006020830152604082019050919050565b6000602682527f506c6174666f726d3a206d616b65206f72646572206d617267696e206e6f742060208301527f656e6f75676800000000000000000000000000000000000000000000000000006040830152606082019050919050565b611eeb81612293565b82525050565b611efa8161229d565b82525050565b6000606082019050611f156000830186611b18565b611f226020830185611b18565b611f2f6040830184611ee2565b949350505050565b6000604082019050611f4c6000830185611b18565b611f596020830184611ee2565b9392505050565b6000606082019050611f756000830186611b18565b611f826020830185611ee2565b611f8f6040830184611ee2565b949350505050565b600060e082019050611fac600083018a611b27565b611fb96020830189611ee2565b611fc66040830188611ee2565b611fd36060830187611ee2565b611fe06080830186611ee2565b611fed60a0830185611b27565b611ffa60c0830184611b36565b98975050505050505050565b600060208201905081810360008301526120208184611b45565b905092915050565b6000602082019050818103600083015261204181611b7b565b9050919050565b6000602082019050818103600083015261206181611bd8565b9050919050565b6000602082019050818103600083015261208181611c35565b9050919050565b600060208201905081810360008301526120a181611c92565b9050919050565b600060208201905081810360008301526120c181611cc9565b9050919050565b600060208201905081810360008301526120e181611d26565b9050919050565b6000602082019050818103600083015261210181611d5d565b9050919050565b6000602082019050818103600083015261212181611dba565b9050919050565b6000602082019050818103600083015261214181611df1565b9050919050565b6000602082019050818103600083015261216181611e4e565b9050919050565b6000602082019050818103600083015261218181611e85565b9050919050565b600060208201905061219d6000830184611ee2565b92915050565b60006040820190506121b86000830185611ee2565b6121c56020830184611ee2565b9392505050565b60006020820190506121e16000830184611ef1565b92915050565b6000604051905081810181811067ffffffffffffffff8211171561220a57600080fd5b8060405250919050565b600067ffffffffffffffff82111561222b57600080fd5b601f19601f8301169050602081019050919050565b600081519050919050565b600061225682612273565b9050919050565b600060088210151561226b57fe5b819050919050565b600073ffffffffffffffffffffffffffffffffffffffff82169050919050565b6000819050919050565b600060ff82169050919050565b60006122b582612273565b9050919050565b60008115159050919050565b6000819050919050565b600060ff82169050919050565b60006122ea82612303565b9050919050565b60006122fc8261225d565b9050919050565b600061230e82612315565b9050919050565b600061232082612273565b9050919050565b60005b8381101561234557808201518184015260208101905061232a565b83811115612354576000848401525b50505050565b6000601f19601f830116905091905056fea265627a7a72305820aec6ef95ffe737c4443f13ce6e9d96811106ad3b0021adfb5689a2f4265b963e6c6578706572696d656e74616cf50037",
  "source": "pragma solidity ^0.5.1;\r\npragma experimental ABIEncoderV2;\r\n\r\nimport \"./Commodity.sol\";\r\nimport \"./SafeMath.sol\";\r\nimport \"./lib/Shared.sol\";\r\n\r\ncontract Platform {\r\n    using SafeMath for uint256;\r\n\r\n    /// @notice Order for specific commodity.\r\n    /// e.g. car part from supplier, car from manufacturer.\r\n    struct Order {\r\n        address payable creator;\r\n        uint256 due;\r\n        uint256 commodity; // index of commodity\r\n        uint256 price;\r\n        uint256 margin;\r\n        address payable filler;\r\n        OrderStatus status;\r\n    }\r\n\r\n    enum OrderStatus {\r\n        _NONE,\r\n        OPEN,\r\n        TAKEN,\r\n        FILLED,\r\n        STOCKED,\r\n        COMPLETED,\r\n        CANCELD,\r\n        OVERDUE\r\n    }\r\n\r\n    //\r\n\r\n    Commodity CMD;\r\n\r\n    Order[] public orders;\r\n    uint256 public MAKER_FEE = 0 wei;\r\n    uint256 public TAKER_FEE = 0 wei;\r\n    uint256 public MARGIN_RATE = 0; // 0.0 to 100.0%\r\n\r\n    mapping(address => uint8) public entities;\r\n\r\n    //\r\n\r\n    event orderCreated(address creator, uint256 due, uint256 commodity);\r\n    event orderTaken(address filler, uint256 index);\r\n    event orderFilled(address filler, uint256 index);\r\n    event orderStoked(address filler, uint256 index);\r\n    event orderCompleted(address creator, address filler, uint256 index);\r\n    event orderCanceled(address creator, uint256 index);\r\n    event orderOverdued(address creator, uint256 index, uint256 due);\r\n\r\n    event makerFeeChange(uint256 from, uint256 to);\r\n    event takerFeeChange(uint256 from, uint256 to);\r\n    event marginRateChange(uint256 from, uint256 to);\r\n\r\n    //\r\n\r\n    constructor() public {\r\n        entities[msg.sender] = uint8(Shared.Entity.SUPERVISOR);\r\n    }\r\n\r\n    modifier registered() {\r\n        require(entities[msg.sender] > 0);\r\n        _;\r\n    }\r\n\r\n    modifier supervisor() {\r\n        require(entities[msg.sender] == uint8(Shared.Entity.SUPERVISOR));\r\n        _;\r\n    }\r\n\r\n    function queryEntity(address addr) public view returns (uint8) {\r\n        return entities[addr];\r\n    }\r\n\r\n    function register(address addr, uint8 entity) public supervisor {\r\n        entities[addr] = entity;\r\n    }\r\n\r\n    function setMakerFee(uint256 mf) external supervisor {\r\n        emit makerFeeChange(MAKER_FEE, mf);\r\n\r\n        MAKER_FEE = mf;\r\n    }\r\n\r\n    function setTakerFee(uint256 tf) external supervisor {\r\n        emit takerFeeChange(TAKER_FEE, tf);\r\n\r\n        TAKER_FEE = tf;\r\n    }\r\n\r\n    function setMarginRate(uint256 margin_rate) external supervisor {\r\n        require(\r\n            margin_rate >= 0 && margin_rate <= 1000,\r\n            \"Platform: margin rate out of range [0, 1000]\"\r\n        );\r\n        emit marginRateChange(MARGIN_RATE, margin_rate);\r\n\r\n        MARGIN_RATE = margin_rate;\r\n    }\r\n\r\n    //\r\n\r\n    /// @param index The index of the commodity in the CMD.commodities list\r\n    /// @return the index of the order created\r\n    function createOrder(uint256 index, uint256 due)\r\n        external\r\n        payable\r\n        registered\r\n        returns (uint256)\r\n    {\r\n        require(msg.value >= MAKER_FEE, \"Platform: make order fee not enough\");\r\n        require(due > now, \"Platform: malformed parameter due\");\r\n        Shared.Detail memory commodity = CMD.getCommodity(index);\r\n\r\n        uint256 price = commodity.price;\r\n        uint256 margin = price.mul(MARGIN_RATE).div(1000);\r\n        require(\r\n            msg.value - MAKER_FEE > margin,\r\n            \"Platform: make order margin not enough\"\r\n        );\r\n        orders.push(\r\n            Order(\r\n                msg.sender,\r\n                now,\r\n                index,\r\n                price,\r\n                margin,\r\n                address(0),\r\n                OrderStatus.OPEN\r\n            )\r\n        );\r\n\r\n        emit orderCreated(msg.sender, due, index);\r\n        return orders.length - 1;\r\n    }\r\n\r\n    /// @param index The index in the order list\r\n    function takeOrder(uint256 index) external payable registered {\r\n        Order storage order = orders[index];\r\n        require(msg.value >= TAKER_FEE, \"Platform: take order fee not enough\");\r\n        if (now > order.due) {\r\n            order.status = OrderStatus.OVERDUE;\r\n            revert(\"Platform: order overdue\");\r\n        }\r\n\r\n        order.filler = msg.sender;\r\n        order.status = OrderStatus.TAKEN;\r\n\r\n        emit orderTaken(msg.sender, index);\r\n    }\r\n\r\n    /// @param index The index in the order list\r\n    function cancelOrder(uint256 index) external registered {\r\n        Order storage order = orders[index];\r\n        require(msg.sender == order.creator, \"Platform: order not yours\");\r\n        require(\r\n            order.status == OrderStatus.OPEN,\r\n            \"Platform: cannot cancel order\"\r\n        );\r\n        if (now > order.due) {\r\n            order.status = OrderStatus.OVERDUE;\r\n            revert(\"Platform: order overdue\");\r\n        }\r\n\r\n        order.status = OrderStatus.CANCELD;\r\n        msg.sender.transfer(order.margin);\r\n\r\n        emit orderCanceled(msg.sender, index);\r\n    }\r\n\r\n    /// @param index The index in the order list\r\n    function fillOrder(uint256 index) external payable registered {\r\n        Order storage order = orders[index];\r\n        require(msg.sender == order.filler, \"Platform: order not yours\");\r\n        if (now > order.due) {\r\n            order.status = OrderStatus.OVERDUE;\r\n            revert(\"Platform: order overdue\");\r\n        }\r\n\r\n        order.status = OrderStatus.FILLED;\r\n\r\n        emit orderFilled(msg.sender, index);\r\n    }\r\n\r\n    function stockOrder(uint256 index, address stocker)\r\n        external\r\n        payable\r\n        registered\r\n    {\r\n        Order storage order = orders[index];\r\n        require(msg.sender == order.filler, \"Platform: order not yours\");\r\n        require(entities[stocker] == uint8(Shared.Entity.DISTRIBUTOR));\r\n        if (now > order.due) {\r\n            order.status = OrderStatus.OVERDUE;\r\n            revert(\"Platform: order overdue\");\r\n        }\r\n\r\n        order.status = OrderStatus.STOCKED;\r\n\r\n        emit orderStoked(msg.sender, index);\r\n    }\r\n\r\n    /// @notice Order creator finally completes by confirming received commodity.\r\n    function completeOrder(uint256 index) external payable registered {\r\n        Order storage order = orders[index];\r\n        require(msg.sender == order.creator, \"Platform: order not yours\");\r\n        require(\r\n            order.status != OrderStatus.COMPLETED,\r\n            \"Platform: order already completed\"\r\n        );\r\n        require(\r\n            msg.value == order.price - order.margin,\r\n            \"Platform: payment not enough\"\r\n        );\r\n\r\n        order.status = OrderStatus.COMPLETED;\r\n        order.filler.transfer(order.price);\r\n\r\n        emit orderCompleted(msg.sender, order.filler, index);\r\n    }\r\n}\r\n",
  "sourcePath": "C:\\Users\\Calvin\\Desktop\\path-project\\contracts\\Platform.sol",
  "compiler": {
    "name": "solc",
    "version": "0.5.1+commit.c8a2cb62.Emscripten.clang"
  },
  "schemaVersion": "3.4.3",
  "updatedAt": "2021-09-25T09:18:37.702Z",
  "devdoc": {
    "methods": {
      "cancelOrder(uint256)": {
        "params": {
          "index": "The index in the order list"
        }
      },
      "createOrder(uint256,uint256)": {
        "return": "the index of the order created"
      },
      "fillOrder(uint256)": {
        "params": {
          "index": "The index in the order list"
        }
      },
      "takeOrder(uint256)": {
        "params": {
          "index": "The index in the order list"
        }
      }
    }
  },
  "userdoc": {
    "methods": {
      "completeOrder(uint256)": {
        "notice": "Order creator finally completes by confirming received commodity."
      }
    }
  }
}