{
  "contractName": "Platform",
  "abi": [
    {
      "constant": true,
      "inputs": [
        {
          "name": "",
          "type": "address"
        }
      ],
      "name": "entities",
      "outputs": [
        {
          "name": "",
          "type": "uint8"
        }
      ],
      "payable": false,
      "stateMutability": "view",
      "type": "function"
    },
    {
      "constant": true,
      "inputs": [],
      "name": "MARGIN_RATE",
      "outputs": [
        {
          "name": "",
          "type": "uint256"
        }
      ],
      "payable": false,
      "stateMutability": "view",
      "type": "function"
    },
    {
      "constant": true,
      "inputs": [],
      "name": "TAKER_FEE",
      "outputs": [
        {
          "name": "",
          "type": "uint256"
        }
      ],
      "payable": false,
      "stateMutability": "view",
      "type": "function"
    },
    {
      "constant": true,
      "inputs": [
        {
          "name": "",
          "type": "uint256"
        }
      ],
      "name": "orders",
      "outputs": [
        {
          "name": "creator",
          "type": "address"
        },
        {
          "name": "due",
          "type": "uint256"
        },
        {
          "name": "commodity",
          "type": "uint256"
        },
        {
          "name": "price",
          "type": "uint256"
        },
        {
          "name": "margin",
          "type": "uint256"
        },
        {
          "name": "filler",
          "type": "address"
        },
        {
          "name": "status",
          "type": "uint8"
        }
      ],
      "payable": false,
      "stateMutability": "view",
      "type": "function"
    },
    {
      "constant": true,
      "inputs": [],
      "name": "MAKER_FEE",
      "outputs": [
        {
          "name": "",
          "type": "uint256"
        }
      ],
      "payable": false,
      "stateMutability": "view",
      "type": "function"
    },
    {
      "inputs": [],
      "payable": false,
      "stateMutability": "nonpayable",
      "type": "constructor"
    },
    {
      "anonymous": false,
      "inputs": [
        {
          "indexed": false,
          "name": "creator",
          "type": "address"
        },
        {
          "indexed": false,
          "name": "due",
          "type": "uint256"
        },
        {
          "indexed": false,
          "name": "commodity",
          "type": "uint256"
        }
      ],
      "name": "orderCreated",
      "type": "event"
    },
    {
      "anonymous": false,
      "inputs": [
        {
          "indexed": false,
          "name": "filler",
          "type": "address"
        },
        {
          "indexed": false,
          "name": "index",
          "type": "uint256"
        }
      ],
      "name": "orderTaken",
      "type": "event"
    },
    {
      "anonymous": false,
      "inputs": [
        {
          "indexed": false,
          "name": "filler",
          "type": "address"
        },
        {
          "indexed": false,
          "name": "index",
          "type": "uint256"
        }
      ],
      "name": "orderFilled",
      "type": "event"
    },
    {
      "anonymous": false,
      "inputs": [
        {
          "indexed": false,
          "name": "filler",
          "type": "address"
        },
        {
          "indexed": false,
          "name": "index",
          "type": "uint256"
        }
      ],
      "name": "orderStocked",
      "type": "event"
    },
    {
      "anonymous": false,
      "inputs": [
        {
          "indexed": false,
          "name": "creator",
          "type": "address"
        },
        {
          "indexed": false,
          "name": "filler",
          "type": "address"
        },
        {
          "indexed": false,
          "name": "index",
          "type": "uint256"
        }
      ],
      "name": "orderCompleted",
      "type": "event"
    },
    {
      "anonymous": false,
      "inputs": [
        {
          "indexed": false,
          "name": "creator",
          "type": "address"
        },
        {
          "indexed": false,
          "name": "index",
          "type": "uint256"
        }
      ],
      "name": "orderCanceled",
      "type": "event"
    },
    {
      "anonymous": false,
      "inputs": [
        {
          "indexed": false,
          "name": "creator",
          "type": "address"
        },
        {
          "indexed": false,
          "name": "index",
          "type": "uint256"
        },
        {
          "indexed": false,
          "name": "due",
          "type": "uint256"
        }
      ],
      "name": "orderOverdued",
      "type": "event"
    },
    {
      "anonymous": false,
      "inputs": [
        {
          "indexed": false,
          "name": "from",
          "type": "uint256"
        },
        {
          "indexed": false,
          "name": "to",
          "type": "uint256"
        }
      ],
      "name": "makerFeeChange",
      "type": "event"
    },
    {
      "anonymous": false,
      "inputs": [
        {
          "indexed": false,
          "name": "from",
          "type": "uint256"
        },
        {
          "indexed": false,
          "name": "to",
          "type": "uint256"
        }
      ],
      "name": "takerFeeChange",
      "type": "event"
    },
    {
      "anonymous": false,
      "inputs": [
        {
          "indexed": false,
          "name": "from",
          "type": "uint256"
        },
        {
          "indexed": false,
          "name": "to",
          "type": "uint256"
        }
      ],
      "name": "marginRateChange",
      "type": "event"
    },
    {
      "constant": true,
      "inputs": [
        {
          "name": "addr",
          "type": "address"
        }
      ],
      "name": "queryEntity",
      "outputs": [
        {
          "name": "",
          "type": "uint8"
        }
      ],
      "payable": false,
      "stateMutability": "view",
      "type": "function"
    },
    {
      "constant": false,
      "inputs": [
        {
          "name": "addr",
          "type": "address"
        },
        {
          "name": "entity",
          "type": "uint8"
        }
      ],
      "name": "register",
      "outputs": [],
      "payable": false,
      "stateMutability": "nonpayable",
      "type": "function"
    },
    {
      "constant": false,
      "inputs": [
        {
          "name": "mf",
          "type": "uint256"
        }
      ],
      "name": "setMakerFee",
      "outputs": [],
      "payable": false,
      "stateMutability": "nonpayable",
      "type": "function"
    },
    {
      "constant": false,
      "inputs": [
        {
          "name": "tf",
          "type": "uint256"
        }
      ],
      "name": "setTakerFee",
      "outputs": [],
      "payable": false,
      "stateMutability": "nonpayable",
      "type": "function"
    },
    {
      "constant": false,
      "inputs": [
        {
          "name": "margin_rate",
          "type": "uint256"
        }
      ],
      "name": "setMarginRate",
      "outputs": [],
      "payable": false,
      "stateMutability": "nonpayable",
      "type": "function"
    },
    {
      "constant": true,
      "inputs": [
        {
          "name": "index",
          "type": "uint256"
        }
      ],
      "name": "getOrder",
      "outputs": [
        {
          "components": [
            {
              "name": "creator",
              "type": "address"
            },
            {
              "name": "due",
              "type": "uint256"
            },
            {
              "name": "commodity",
              "type": "uint256"
            },
            {
              "name": "price",
              "type": "uint256"
            },
            {
              "name": "margin",
              "type": "uint256"
            },
            {
              "name": "filler",
              "type": "address"
            },
            {
              "name": "status",
              "type": "uint8"
            }
          ],
          "name": "",
          "type": "tuple"
        }
      ],
      "payable": false,
      "stateMutability": "view",
      "type": "function"
    },
    {
      "constant": false,
      "inputs": [
        {
          "name": "index",
          "type": "uint256"
        },
        {
          "name": "due",
          "type": "uint256"
        }
      ],
      "name": "createOrder",
      "outputs": [
        {
          "name": "",
          "type": "uint256"
        }
      ],
      "payable": true,
      "stateMutability": "payable",
      "type": "function"
    },
    {
      "constant": false,
      "inputs": [
        {
          "name": "index",
          "type": "uint256"
        }
      ],
      "name": "takeOrder",
      "outputs": [],
      "payable": true,
      "stateMutability": "payable",
      "type": "function"
    },
    {
      "constant": false,
      "inputs": [
        {
          "name": "index",
          "type": "uint256"
        }
      ],
      "name": "cancelOrder",
      "outputs": [],
      "payable": false,
      "stateMutability": "nonpayable",
      "type": "function"
    },
    {
      "constant": false,
      "inputs": [
        {
          "name": "index",
          "type": "uint256"
        }
      ],
      "name": "fillOrder",
      "outputs": [],
      "payable": true,
      "stateMutability": "payable",
      "type": "function"
    },
    {
      "constant": false,
      "inputs": [
        {
          "name": "index",
          "type": "uint256"
        },
        {
          "name": "stocker",
          "type": "address"
        }
      ],
      "name": "stockOrder",
      "outputs": [],
      "payable": true,
      "stateMutability": "payable",
      "type": "function"
    },
    {
      "constant": false,
      "inputs": [
        {
          "name": "index",
          "type": "uint256"
        }
      ],
      "name": "completeOrder",
      "outputs": [],
      "payable": true,
      "stateMutability": "payable",
      "type": "function"
    }
  ],
  "bytecode": "0x608060405260006002556000600355600060045534801561001f57600080fd5b506007600881111561002d57fe5b600560003373ffffffffffffffffffffffffffffffffffffffff1673ffffffffffffffffffffffffffffffffffffffff16815260200190815260200160002060006101000a81548160ff021916908360ff160217905550612644806100936000396000f3fe6080604052600436106100eb576000357c01000000000000000000000000000000000000000000000000000000009004806307e49598146100f05780631d8ee48a146101195780633b5d1a2414610156578063514fcac714610172578063577509c11461019b57806367b830ad146101c65780636eff3e8b146101e257806379109baa1461020b57806380cbdf831461023b57806387d84b40146102575780639fa5bc2414610294578063a85c38ef146102bf578063b537889c14610302578063b6adaaff1461032d578063b8bd3dbb14610349578063d09ef24114610372578063f1cca8aa146103af575b600080fd5b3480156100fc57600080fd5b5061011760048036036101129190810190611bf0565b6103d8565b005b34801561012557600080fd5b50610140600480360361013b9190810190611bc7565b6104a0565b60405161014d919061246b565b60405180910390f35b610170600480360361016b9190810190611c6d565b6104c0565b005b34801561017e57600080fd5b5061019960048036036101949190810190611c6d565b610699565b005b3480156101a757600080fd5b506101b0610933565b6040516101bd9190612427565b60405180910390f35b6101e060048036036101db9190810190611c6d565b610939565b005b3480156101ee57600080fd5b5061020960048036036102049190810190611c6d565b610b1c565b005b61022560048036036102209190810190611cd2565b610c21565b6040516102329190612427565b60405180910390f35b61025560048036036102509190810190611c96565b611028565b005b34801561026357600080fd5b5061027e60048036036102799190810190611bc7565b611278565b60405161028b919061246b565b60405180910390f35b3480156102a057600080fd5b506102a96112ce565b6040516102b69190612427565b60405180910390f35b3480156102cb57600080fd5b506102e660048036036102e19190810190611c6d565b6112d4565b6040516102f9979695949392919061221b565b60405180910390f35b34801561030e57600080fd5b50610317611372565b6040516103249190612427565b60405180910390f35b61034760048036036103429190810190611c6d565b611378565b005b34801561035557600080fd5b50610370600480360361036b9190810190611c6d565b61163e565b005b34801561037e57600080fd5b5061039960048036036103949190810190611c6d565b6116ef565b6040516103a6919061240c565b60405180910390f35b3480156103bb57600080fd5b506103d660048036036103d19190810190611c6d565b611828565b005b600760088111156103e557fe5b60ff16600560003373ffffffffffffffffffffffffffffffffffffffff1673ffffffffffffffffffffffffffffffffffffffff16815260200190815260200160002060009054906101000a900460ff1660ff1614151561044457600080fd5b80600560008473ffffffffffffffffffffffffffffffffffffffff1673ffffffffffffffffffffffffffffffffffffffff16815260200190815260200160002060006101000a81548160ff021916908360ff1602179055505050565b60056020528060005260406000206000915054906101000a900460ff1681565b6000600560003373ffffffffffffffffffffffffffffffffffffffff1673ffffffffffffffffffffffffffffffffffffffff16815260200190815260200160002060009054906101000a900460ff1660ff1611151561051e57600080fd5b600060018281548110151561052f57fe5b906000526020600020906006020190506003543410151515610586576040517f08c379a000000000000000000000000000000000000000000000000000000000815260040161057d906122cc565b60405180910390fd5b80600101544211156105f35760078160050160146101000a81548160ff021916908360078111156105b357fe5b02179055506040517f08c379a00000000000000000000000000000000000000000000000000000000081526004016105ea9061230c565b60405180910390fd5b338160050160006101000a81548173ffffffffffffffffffffffffffffffffffffffff021916908373ffffffffffffffffffffffffffffffffffffffff16021790555060028160050160146101000a81548160ff0219169083600781111561065757fe5b02179055507f74011bf310e48cabc001c3106a23476c000c959c7089e053009bf9dabe00ab1e338360405161068d9291906121bb565b60405180910390a15050565b6000600560003373ffffffffffffffffffffffffffffffffffffffff1673ffffffffffffffffffffffffffffffffffffffff16815260200190815260200160002060009054906101000a900460ff1660ff161115156106f757600080fd5b600060018281548110151561070857fe5b906000526020600020906006020190508060000160009054906101000a900473ffffffffffffffffffffffffffffffffffffffff1673ffffffffffffffffffffffffffffffffffffffff163373ffffffffffffffffffffffffffffffffffffffff161415156107ac576040517f08c379a00000000000000000000000000000000000000000000000000000000081526004016107a39061234c565b60405180910390fd5b600160078111156107b957fe5b8160050160149054906101000a900460ff1660078111156107d657fe5b141515610818576040517f08c379a000000000000000000000000000000000000000000000000000000000815260040161080f906123cc565b60405180910390fd5b80600101544211156108855760078160050160146101000a81548160ff0219169083600781111561084557fe5b02179055506040517f08c379a000000000000000000000000000000000000000000000000000000000815260040161087c9061230c565b60405180910390fd5b60068160050160146101000a81548160ff021916908360078111156108a657fe5b02179055503373ffffffffffffffffffffffffffffffffffffffff166108fc82600401549081150290604051600060405180830381858888f193505050501580156108f5573d6000803e3d6000fd5b507f351652748d8287004f56708faf022e0bda08f7a4a3f2c937b6bed9b75d5e943233836040516109279291906121bb565b60405180910390a15050565b60045481565b6000600560003373ffffffffffffffffffffffffffffffffffffffff1673ffffffffffffffffffffffffffffffffffffffff16815260200190815260200160002060009054906101000a900460ff1660ff1611151561099757600080fd5b60006001828154811015156109a857fe5b906000526020600020906006020190508060050160009054906101000a900473ffffffffffffffffffffffffffffffffffffffff1673ffffffffffffffffffffffffffffffffffffffff163373ffffffffffffffffffffffffffffffffffffffff16141515610a4c576040517f08c379a0000000000000000000000000000000000000000000000000000000008152600401610a439061234c565b60405180910390fd5b8060010154421115610ab95760078160050160146101000a81548160ff02191690836007811115610a7957fe5b02179055506040517f08c379a0000000000000000000000000000000000000000000000000000000008152600401610ab09061230c565b60405180910390fd5b60038160050160146101000a81548160ff02191690836007811115610ada57fe5b02179055507f2750733e82a3be1f095ba4fcc7e876a16ac7439832c3e54398b5b9670e5d800b3383604051610b109291906121bb565b60405180910390a15050565b60076008811115610b2957fe5b60ff16600560003373ffffffffffffffffffffffffffffffffffffffff1673ffffffffffffffffffffffffffffffffffffffff16815260200190815260200160002060009054906101000a900460ff1660ff16141515610b8857600080fd5b60008110158015610b9b57506103e88111155b1515610bdc576040517f08c379a0000000000000000000000000000000000000000000000000000000008152600401610bd3906122ec565b60405180910390fd5b7f858c36623289061a635ff4b7ca945e6031392a1f03cc9d27ebd7bb43c3c7521460045482604051610c0f929190612442565b60405180910390a18060048190555050565b600080600560003373ffffffffffffffffffffffffffffffffffffffff1673ffffffffffffffffffffffffffffffffffffffff16815260200190815260200160002060009054906101000a900460ff1660ff16111515610c8057600080fd5b6002543410151515610cc7576040517f08c379a0000000000000000000000000000000000000000000000000000000008152600401610cbe906122ac565b60405180910390fd5b4282111515610d0b576040517f08c379a0000000000000000000000000000000000000000000000000000000008152600401610d029061236c565b60405180910390fd5b610d136119fc565b6000809054906101000a900473ffffffffffffffffffffffffffffffffffffffff1673ffffffffffffffffffffffffffffffffffffffff16632f63f34f856040518263ffffffff167c0100000000000000000000000000000000000000000000000000000000028152600401610d899190612427565b60006040518083038186803b158015610da157600080fd5b505afa158015610db5573d6000803e3d6000fd5b505050506040513d6000823e3d601f19601f82011682018060405250610dde9190810190611c2c565b90506000816020015190506000610e146103e8610e06600454856118d990919063ffffffff16565b61194d90919063ffffffff16565b9050806002543403111515610e5e576040517f08c379a0000000000000000000000000000000000000000000000000000000008152600401610e55906123ec565b60405180910390fd5b600160e0604051908101604052803373ffffffffffffffffffffffffffffffffffffffff168152602001428152602001888152602001848152602001838152602001600073ffffffffffffffffffffffffffffffffffffffff16815260200160016007811115610eca57fe5b8152509080600181540180825580915050906001820390600052602060002090600602016000909192909190915060008201518160000160006101000a81548173ffffffffffffffffffffffffffffffffffffffff021916908373ffffffffffffffffffffffffffffffffffffffff1602179055506020820151816001015560408201518160020155606082015181600301556080820151816004015560a08201518160050160006101000a81548173ffffffffffffffffffffffffffffffffffffffff021916908373ffffffffffffffffffffffffffffffffffffffff16021790555060c08201518160050160146101000a81548160ff02191690836007811115610fd257fe5b02179055505050507f51f093a1bdbdfb1051ee9ac02c91a190e9ce1509db9b1d4cd11c090ecb55b16233868860405161100d939291906121e4565b60405180910390a16001808054905003935050505092915050565b6000600560003373ffffffffffffffffffffffffffffffffffffffff1673ffffffffffffffffffffffffffffffffffffffff16815260200190815260200160002060009054906101000a900460ff1660ff1611151561108657600080fd5b600060018381548110151561109757fe5b906000526020600020906006020190508060050160009054906101000a900473ffffffffffffffffffffffffffffffffffffffff1673ffffffffffffffffffffffffffffffffffffffff163373ffffffffffffffffffffffffffffffffffffffff1614151561113b576040517f08c379a00000000000000000000000000000000000000000000000000000000081526004016111329061234c565b60405180910390fd5b6003600881111561114857fe5b60ff16600560008473ffffffffffffffffffffffffffffffffffffffff1673ffffffffffffffffffffffffffffffffffffffff16815260200190815260200160002060009054906101000a900460ff1660ff161415156111a757600080fd5b80600101544211156112145760078160050160146101000a81548160ff021916908360078111156111d457fe5b02179055506040517f08c379a000000000000000000000000000000000000000000000000000000000815260040161120b9061230c565b60405180910390fd5b60048160050160146101000a81548160ff0219169083600781111561123557fe5b02179055507f5be75743e2fe3f1420136f052b3a6cfddcd024bdfdd172e232b03e80b2a43846338460405161126b9291906121bb565b60405180910390a1505050565b6000600560008373ffffffffffffffffffffffffffffffffffffffff1673ffffffffffffffffffffffffffffffffffffffff16815260200190815260200160002060009054906101000a900460ff169050919050565b60035481565b6001818154811015156112e357fe5b90600052602060002090600602016000915090508060000160009054906101000a900473ffffffffffffffffffffffffffffffffffffffff16908060010154908060020154908060030154908060040154908060050160009054906101000a900473ffffffffffffffffffffffffffffffffffffffff16908060050160149054906101000a900460ff16905087565b60025481565b6000600560003373ffffffffffffffffffffffffffffffffffffffff1673ffffffffffffffffffffffffffffffffffffffff16815260200190815260200160002060009054906101000a900460ff1660ff161115156113d657600080fd5b60006001828154811015156113e757fe5b906000526020600020906006020190508060000160009054906101000a900473ffffffffffffffffffffffffffffffffffffffff1673ffffffffffffffffffffffffffffffffffffffff163373ffffffffffffffffffffffffffffffffffffffff1614151561148b576040517f08c379a00000000000000000000000000000000000000000000000000000000081526004016114829061234c565b60405180910390fd5b6005600781111561149857fe5b8160050160149054906101000a900460ff1660078111156114b557fe5b141515156114f8576040517f08c379a00000000000000000000000000000000000000000000000000000000081526004016114ef9061232c565b60405180910390fd5b806004015481600301540334141515611546576040517f08c379a000000000000000000000000000000000000000000000000000000000815260040161153d9061238c565b60405180910390fd5b60058160050160146101000a81548160ff0219169083600781111561156757fe5b02179055508060050160009054906101000a900473ffffffffffffffffffffffffffffffffffffffff1673ffffffffffffffffffffffffffffffffffffffff166108fc82600301549081150290604051600060405180830381858888f193505050501580156115da573d6000803e3d6000fd5b507f2fac3148f52010de0f0f3c61efffc16d4579dfd8dff8c7e4ec70706f80fee150338260050160009054906101000a900473ffffffffffffffffffffffffffffffffffffffff168460405161163293929190612184565b60405180910390a15050565b6007600881111561164b57fe5b60ff16600560003373ffffffffffffffffffffffffffffffffffffffff1673ffffffffffffffffffffffffffffffffffffffff16815260200190815260200160002060009054906101000a900460ff1660ff161415156116aa57600080fd5b7f0267970623ba778540e92264d7d7bd5f10fee880f05b68bb7c93e0967c888934600254826040516116dd929190612442565b60405180910390a18060028190555050565b6116f7611a20565b60018281548110151561170657fe5b906000526020600020906006020160e060405190810160405290816000820160009054906101000a900473ffffffffffffffffffffffffffffffffffffffff1673ffffffffffffffffffffffffffffffffffffffff1673ffffffffffffffffffffffffffffffffffffffff168152602001600182015481526020016002820154815260200160038201548152602001600482015481526020016005820160009054906101000a900473ffffffffffffffffffffffffffffffffffffffff1673ffffffffffffffffffffffffffffffffffffffff1673ffffffffffffffffffffffffffffffffffffffff1681526020016005820160149054906101000a900460ff16600781111561181257fe5b600781111561181d57fe5b815250509050919050565b6007600881111561183557fe5b60ff16600560003373ffffffffffffffffffffffffffffffffffffffff1673ffffffffffffffffffffffffffffffffffffffff16815260200190815260200160002060009054906101000a900460ff1660ff1614151561189457600080fd5b7fe13b566d06967ecd5037ab33447d6435f92094cf316fc63e22f03f86c2bbdf01600354826040516118c7929190612442565b60405180910390a18060038190555050565b6000808314156118ec5760009050611947565b600082840290508284828115156118ff57fe5b04141515611942576040517f08c379a0000000000000000000000000000000000000000000000000000000008152600401611939906123ac565b60405180910390fd5b809150505b92915050565b600061198f83836040805190810160405280601a81526020017f536166654d6174683a206469766973696f6e206279207a65726f000000000000815250611997565b905092915050565b6000808311829015156119e0576040517f08c379a00000000000000000000000000000000000000000000000000000000081526004016119d7919061228a565b60405180910390fd5b50600083858115156119ee57fe5b049050809150509392505050565b60606040519081016040528060608152602001600081526020016000151581525090565b60e060405190810160405280600073ffffffffffffffffffffffffffffffffffffffff16815260200160008152602001600081526020016000815260200160008152602001600073ffffffffffffffffffffffffffffffffffffffff16815260200160006007811115611a8f57fe5b81525090565b6000611aa18235612549565b905092915050565b6000611ab5825161255b565b905092915050565b600082601f8301121515611ad057600080fd5b8151611ae3611ade826124b3565b612486565b91508082526020830160208301858383011115611aff57600080fd5b611b0a8382846125c6565b50505092915050565b600060608284031215611b2557600080fd5b611b2f6060612486565b9050600082015167ffffffffffffffff811115611b4b57600080fd5b611b5784828501611abd565b6000830152506020611b6b84828501611b9f565b6020830152506040611b7f84828501611aa9565b60408301525092915050565b6000611b978235612567565b905092915050565b6000611bab8251612567565b905092915050565b6000611bbf8235612571565b905092915050565b600060208284031215611bd957600080fd5b6000611be784828501611a95565b91505092915050565b60008060408385031215611c0357600080fd5b6000611c1185828601611a95565b9250506020611c2285828601611bb3565b9150509250929050565b600060208284031215611c3e57600080fd5b600082015167ffffffffffffffff811115611c5857600080fd5b611c6484828501611b13565b91505092915050565b600060208284031215611c7f57600080fd5b6000611c8d84828501611b8b565b91505092915050565b60008060408385031215611ca957600080fd5b6000611cb785828601611b8b565b9250506020611cc885828601611a95565b9150509250929050565b60008060408385031215611ce557600080fd5b6000611cf385828601611b8b565b9250506020611d0485828601611b8b565b9150509250929050565b611d178161257e565b82525050565b611d26816124ea565b82525050565b611d3581612590565b82525050565b6000611d46826124df565b808452611d5a8160208601602086016125c6565b611d63816125f9565b602085010191505092915050565b6000602382527f506c6174666f726d3a206d616b65206f7264657220666565206e6f7420656e6f60208301527f75676800000000000000000000000000000000000000000000000000000000006040830152606082019050919050565b6000602382527f506c6174666f726d3a2074616b65206f7264657220666565206e6f7420656e6f60208301527f75676800000000000000000000000000000000000000000000000000000000006040830152606082019050919050565b6000602c82527f506c6174666f726d3a206d617267696e2072617465206f7574206f662072616e60208301527f6765205b302c20313030305d00000000000000000000000000000000000000006040830152606082019050919050565b6000601782527f506c6174666f726d3a206f72646572206f7665726475650000000000000000006020830152604082019050919050565b6000602182527f506c6174666f726d3a206f7264657220616c726561647920636f6d706c65746560208301527f64000000000000000000000000000000000000000000000000000000000000006040830152606082019050919050565b6000601982527f506c6174666f726d3a206f72646572206e6f7420796f757273000000000000006020830152604082019050919050565b6000602182527f506c6174666f726d3a206d616c666f726d656420706172616d6574657220647560208301527f65000000000000000000000000000000000000000000000000000000000000006040830152606082019050919050565b6000601c82527f506c6174666f726d3a207061796d656e74206e6f7420656e6f756768000000006020830152604082019050919050565b6000602182527f536166654d6174683a206d756c7469706c69636174696f6e206f766572666c6f60208301527f77000000000000000000000000000000000000000000000000000000000000006040830152606082019050919050565b6000601d82527f506c6174666f726d3a2063616e6e6f742063616e63656c206f726465720000006020830152604082019050919050565b6000602682527f506c6174666f726d3a206d616b65206f72646572206d617267696e206e6f742060208301527f656e6f75676800000000000000000000000000000000000000000000000000006040830152606082019050919050565b60e0820160008201516120ee6000850182611d1d565b5060208201516121016020850182612166565b5060408201516121146040850182612166565b5060608201516121276060850182612166565b50608082015161213a6080850182612166565b5060a082015161214d60a0850182611d1d565b5060c082015161216060c0850182611d2c565b50505050565b61216f81612532565b82525050565b61217e8161253c565b82525050565b60006060820190506121996000830186611d0e565b6121a66020830185611d0e565b6121b36040830184612166565b949350505050565b60006040820190506121d06000830185611d0e565b6121dd6020830184612166565b9392505050565b60006060820190506121f96000830186611d0e565b6122066020830185612166565b6122136040830184612166565b949350505050565b600060e082019050612230600083018a611d1d565b61223d6020830189612166565b61224a6040830188612166565b6122576060830187612166565b6122646080830186612166565b61227160a0830185611d1d565b61227e60c0830184611d2c565b98975050505050505050565b600060208201905081810360008301526122a48184611d3b565b905092915050565b600060208201905081810360008301526122c581611d71565b9050919050565b600060208201905081810360008301526122e581611dce565b9050919050565b6000602082019050818103600083015261230581611e2b565b9050919050565b6000602082019050818103600083015261232581611e88565b9050919050565b6000602082019050818103600083015261234581611ebf565b9050919050565b6000602082019050818103600083015261236581611f1c565b9050919050565b6000602082019050818103600083015261238581611f53565b9050919050565b600060208201905081810360008301526123a581611fb0565b9050919050565b600060208201905081810360008301526123c581611fe7565b9050919050565b600060208201905081810360008301526123e581612044565b9050919050565b600060208201905081810360008301526124058161207b565b9050919050565b600060e08201905061242160008301846120d8565b92915050565b600060208201905061243c6000830184612166565b92915050565b60006040820190506124576000830185612166565b6124646020830184612166565b9392505050565b60006020820190506124806000830184612175565b92915050565b6000604051905081810181811067ffffffffffffffff821117156124a957600080fd5b8060405250919050565b600067ffffffffffffffff8211156124ca57600080fd5b601f19601f8301169050602081019050919050565b600081519050919050565b60006124f582612512565b9050919050565b600060088210151561250a57fe5b819050919050565b600073ffffffffffffffffffffffffffffffffffffffff82169050919050565b6000819050919050565b600060ff82169050919050565b600061255482612512565b9050919050565b60008115159050919050565b6000819050919050565b600060ff82169050919050565b6000612589826125a2565b9050919050565b600061259b826124fc565b9050919050565b60006125ad826125b4565b9050919050565b60006125bf82612512565b9050919050565b60005b838110156125e45780820151818401526020810190506125c9565b838111156125f3576000848401525b50505050565b6000601f19601f830116905091905056fea265627a7a7230582026de22f81c06a16732d88ab24d9eb3880efa9f9d9d9a2c0000deca3577c1bf0d6c6578706572696d656e74616cf50037",
  "source": "pragma solidity ^0.5.1;\r\npragma experimental ABIEncoderV2;\r\n\r\nimport \"./Commodity.sol\";\r\nimport \"./SafeMath.sol\";\r\nimport \"./lib/Shared.sol\";\r\n\r\ncontract Platform {\r\n    using SafeMath for uint256;\r\n\r\n    Commodity CMD;\r\n\r\n    Shared.Order[] public orders;\r\n    uint256 public MAKER_FEE = 0 wei;\r\n    uint256 public TAKER_FEE = 0 wei;\r\n    uint256 public MARGIN_RATE = 0; // 0.0 to 100.0%\r\n\r\n    mapping(address => uint8) public entities;\r\n\r\n    //\r\n\r\n    event orderCreated(address creator, uint256 due, uint256 commodity);\r\n    event orderTaken(address filler, uint256 index);\r\n    event orderFilled(address filler, uint256 index);\r\n    event orderStocked(address filler, uint256 index);\r\n    event orderCompleted(address creator, address filler, uint256 index);\r\n    event orderCanceled(address creator, uint256 index);\r\n    event orderOverdued(address creator, uint256 index, uint256 due);\r\n\r\n    event makerFeeChange(uint256 from, uint256 to);\r\n    event takerFeeChange(uint256 from, uint256 to);\r\n    event marginRateChange(uint256 from, uint256 to);\r\n\r\n    //\r\n\r\n    constructor() public {\r\n        entities[msg.sender] = uint8(Shared.Entity.SUPERVISOR);\r\n    }\r\n\r\n    modifier registered() {\r\n        require(entities[msg.sender] > 0);\r\n        _;\r\n    }\r\n\r\n    modifier supervisor() {\r\n        require(entities[msg.sender] == uint8(Shared.Entity.SUPERVISOR));\r\n        _;\r\n    }\r\n\r\n    function queryEntity(address addr) public view returns (uint8) {\r\n        return entities[addr];\r\n    }\r\n\r\n    function register(address addr, uint8 entity) public supervisor {\r\n        entities[addr] = entity;\r\n    }\r\n\r\n    function setMakerFee(uint256 mf) external supervisor {\r\n        emit makerFeeChange(MAKER_FEE, mf);\r\n\r\n        MAKER_FEE = mf;\r\n    }\r\n\r\n    function setTakerFee(uint256 tf) external supervisor {\r\n        emit takerFeeChange(TAKER_FEE, tf);\r\n\r\n        TAKER_FEE = tf;\r\n    }\r\n\r\n    function setMarginRate(uint256 margin_rate) external supervisor {\r\n        require(\r\n            margin_rate >= 0 && margin_rate <= 1000,\r\n            \"Platform: margin rate out of range [0, 1000]\"\r\n        );\r\n        emit marginRateChange(MARGIN_RATE, margin_rate);\r\n\r\n        MARGIN_RATE = margin_rate;\r\n    }\r\n\r\n    //\r\n\r\n    function getOrder(uint256 index) public view returns (Shared.Order memory) {\r\n        return orders[index];\r\n    }\r\n\r\n    //\r\n\r\n    /// @param index The index of the commodity in the CMD.commodities list\r\n    /// @return the index of the order created\r\n    function createOrder(uint256 index, uint256 due)\r\n        external\r\n        payable\r\n        registered\r\n        returns (uint256)\r\n    {\r\n        require(msg.value >= MAKER_FEE, \"Platform: make order fee not enough\");\r\n        require(due > now, \"Platform: malformed parameter due\");\r\n        Shared.Detail memory commodity = CMD.getCommodity(index);\r\n\r\n        uint256 price = commodity.price;\r\n        uint256 margin = price.mul(MARGIN_RATE).div(1000);\r\n        require(\r\n            msg.value - MAKER_FEE > margin,\r\n            \"Platform: make order margin not enough\"\r\n        );\r\n        orders.push(\r\n            Shared.Order(\r\n                msg.sender,\r\n                now,\r\n                index,\r\n                price,\r\n                margin,\r\n                address(0),\r\n                Shared.OrderStatus.OPEN\r\n            )\r\n        );\r\n\r\n        emit orderCreated(msg.sender, due, index);\r\n        return orders.length - 1;\r\n    }\r\n\r\n    /// @param index The index in the order list\r\n    function takeOrder(uint256 index) external payable registered {\r\n        Shared.Order storage order = orders[index];\r\n        require(msg.value >= TAKER_FEE, \"Platform: take order fee not enough\");\r\n        if (now > order.due) {\r\n            order.status = Shared.OrderStatus.OVERDUE;\r\n            revert(\"Platform: order overdue\");\r\n        }\r\n\r\n        order.filler = msg.sender;\r\n        order.status = Shared.OrderStatus.TAKEN;\r\n\r\n        emit orderTaken(msg.sender, index);\r\n    }\r\n\r\n    /// @param index The index in the order list\r\n    function cancelOrder(uint256 index) external registered {\r\n        Shared.Order storage order = orders[index];\r\n        require(msg.sender == order.creator, \"Platform: order not yours\");\r\n        require(\r\n            order.status == Shared.OrderStatus.OPEN,\r\n            \"Platform: cannot cancel order\"\r\n        );\r\n        if (now > order.due) {\r\n            order.status = Shared.OrderStatus.OVERDUE;\r\n            revert(\"Platform: order overdue\");\r\n        }\r\n\r\n        order.status = Shared.OrderStatus.CANCELD;\r\n        msg.sender.transfer(order.margin);\r\n\r\n        emit orderCanceled(msg.sender, index);\r\n    }\r\n\r\n    /// @param index The index in the order list\r\n    function fillOrder(uint256 index) external payable registered {\r\n        Shared.Order storage order = orders[index];\r\n        require(msg.sender == order.filler, \"Platform: order not yours\");\r\n        if (now > order.due) {\r\n            order.status = Shared.OrderStatus.OVERDUE;\r\n            revert(\"Platform: order overdue\");\r\n        }\r\n\r\n        order.status = Shared.OrderStatus.FILLED;\r\n\r\n        emit orderFilled(msg.sender, index);\r\n    }\r\n\r\n    function stockOrder(uint256 index, address stocker)\r\n        external\r\n        payable\r\n        registered\r\n    {\r\n        Shared.Order storage order = orders[index];\r\n        require(msg.sender == order.filler, \"Platform: order not yours\");\r\n        require(entities[stocker] == uint8(Shared.Entity.DISTRIBUTOR));\r\n        if (now > order.due) {\r\n            order.status = Shared.OrderStatus.OVERDUE;\r\n            revert(\"Platform: order overdue\");\r\n        }\r\n\r\n        order.status = Shared.OrderStatus.STOCKED;\r\n\r\n        emit orderStocked(msg.sender, index);\r\n    }\r\n\r\n    /// @notice Order creator finally completes by confirming received commodity.\r\n    function completeOrder(uint256 index) external payable registered {\r\n        Shared.Order storage order = orders[index];\r\n        require(msg.sender == order.creator, \"Platform: order not yours\");\r\n        require(\r\n            order.status != Shared.OrderStatus.COMPLETED,\r\n            \"Platform: order already completed\"\r\n        );\r\n        require(\r\n            msg.value == order.price - order.margin,\r\n            \"Platform: payment not enough\"\r\n        );\r\n\r\n        order.status = Shared.OrderStatus.COMPLETED;\r\n        order.filler.transfer(order.price);\r\n\r\n        emit orderCompleted(msg.sender, order.filler, index);\r\n    }\r\n}\r\n",
  "sourcePath": "C:\\Users\\Calvin\\Desktop\\path-project\\contracts\\Platform.sol",
  "compiler": {
    "name": "solc",
    "version": "0.5.1+commit.c8a2cb62.Emscripten.clang"
  },
  "schemaVersion": "3.4.3",
  "updatedAt": "2021-11-16T09:37:36.664Z",
  "networkType": "ethereum",
  "devdoc": {
    "methods": {
      "cancelOrder(uint256)": {
        "params": {
          "index": "The index in the order list"
        }
      },
      "createOrder(uint256,uint256)": {
        "return": "the index of the order created"
      },
      "fillOrder(uint256)": {
        "params": {
          "index": "The index in the order list"
        }
      },
      "takeOrder(uint256)": {
        "params": {
          "index": "The index in the order list"
        }
      }
    }
  },
  "userdoc": {
    "methods": {
      "completeOrder(uint256)": {
        "notice": "Order creator finally completes by confirming received commodity."
      }
    }
  }
}