{
  "contractName": "Service",
  "abi": [
    {
      "constant": true,
      "inputs": [
        {
          "name": "tokenId",
          "type": "uint256"
        }
      ],
      "name": "trace",
      "outputs": [
        {
          "name": "",
          "type": "string"
        }
      ],
      "payable": false,
      "stateMutability": "view",
      "type": "function"
    }
  ],
  "bytecode": "0x608060405234801561001057600080fd5b5061039d806100206000396000f3fe60806040526004361061003b576000357c010000000000000000000000000000000000000000000000000000000090048063a68a4fed14610040575b600080fd5b34801561004c57600080fd5b50610067600480360361006291908101906101fc565b61007d565b604051610074919061026a565b60405180910390f35b60606000809054906101000a900473ffffffffffffffffffffffffffffffffffffffff1673ffffffffffffffffffffffffffffffffffffffff1663a68a4fed836040518263ffffffff167c01000000000000000000000000000000000000000000000000000000000281526004016100f5919061028c565b60006040518083038186803b15801561010d57600080fd5b505afa158015610121573d6000803e3d6000fd5b505050506040513d6000823e3d601f19601f8201168201806040525061014a91908101906101bb565b9050919050565b600082601f830112151561016457600080fd5b8151610177610172826102d4565b6102a7565b9150808252602083016020830185838301111561019357600080fd5b61019e83828461031f565b50505092915050565b60006101b38235610315565b905092915050565b6000602082840312156101cd57600080fd5b600082015167ffffffffffffffff8111156101e757600080fd5b6101f384828501610151565b91505092915050565b60006020828403121561020e57600080fd5b600061021c848285016101a7565b91505092915050565b600061023082610300565b80845261024481602086016020860161031f565b61024d81610352565b602085010191505092915050565b6102648161030b565b82525050565b600060208201905081810360008301526102848184610225565b905092915050565b60006020820190506102a1600083018461025b565b92915050565b6000604051905081810181811067ffffffffffffffff821117156102ca57600080fd5b8060405250919050565b600067ffffffffffffffff8211156102eb57600080fd5b601f19601f8301169050602081019050919050565b600081519050919050565b6000819050919050565b6000819050919050565b60005b8381101561033d578082015181840152602081019050610322565b8381111561034c576000848401525b50505050565b6000601f19601f830116905091905056fea265627a7a7230582053c29bf4daefbef3fe88be425fa595e59304e218abcb18f1445992993728e7986c6578706572696d656e74616cf50037",
  "source": "pragma solidity ^0.5.1;\r\npragma experimental ABIEncoderV2;\r\n\r\nimport \"../Part.sol\";\r\n\r\ncontract Service {\r\n    Part pt;\r\n\r\n    function trace(uint256 tokenId) external view returns (string memory) {\r\n        return pt.trace(tokenId);\r\n    }\r\n}\r\n",
  "sourcePath": "C:\\Users\\Calvin\\Desktop\\path-project\\contracts\\entity\\Service.sol",
  "compiler": {
    "name": "solc",
    "version": "0.5.1+commit.c8a2cb62.Emscripten.clang"
  },
  "schemaVersion": "3.4.3",
  "updatedAt": "2021-11-16T09:37:30.087Z",
  "devdoc": {
    "methods": {}
  },
  "userdoc": {
    "methods": {}
  }
}