{
  "contractName": "Supplier",
  "abi": [
    {
      "inputs": [],
      "payable": false,
      "stateMutability": "nonpayable",
      "type": "constructor"
    },
    {
      "constant": false,
      "inputs": [
        {
          "name": "name",
          "type": "string"
        },
        {
          "name": "price",
          "type": "uint256"
        },
        {
          "name": "available",
          "type": "bool"
        }
      ],
      "name": "addCommodity",
      "outputs": [
        {
          "name": "",
          "type": "uint256"
        }
      ],
      "payable": true,
      "stateMutability": "payable",
      "type": "function"
    },
    {
      "constant": false,
      "inputs": [
        {
          "name": "index",
          "type": "uint256"
        },
        {
          "name": "due",
          "type": "uint256"
        }
      ],
      "name": "createOrder",
      "outputs": [
        {
          "name": "",
          "type": "uint256"
        }
      ],
      "payable": true,
      "stateMutability": "payable",
      "type": "function"
    },
    {
      "constant": false,
      "inputs": [
        {
          "name": "index",
          "type": "uint256"
        }
      ],
      "name": "takeOrder",
      "outputs": [],
      "payable": true,
      "stateMutability": "payable",
      "type": "function"
    },
    {
      "constant": false,
      "inputs": [
        {
          "name": "index",
          "type": "uint256"
        },
        {
          "name": "distributor",
          "type": "address"
        }
      ],
      "name": "fillOrder",
      "outputs": [
        {
          "name": "",
          "type": "uint256"
        }
      ],
      "payable": true,
      "stateMutability": "payable",
      "type": "function"
    },
    {
      "constant": false,
      "inputs": [
        {
          "name": "index",
          "type": "uint256"
        }
      ],
      "name": "completeOrder",
      "outputs": [],
      "payable": true,
      "stateMutability": "payable",
      "type": "function"
    }
  ],
  "bytecode": "0x608060405234801561001057600080fd5b5033600360006101000a81548173ffffffffffffffffffffffffffffffffffffffff021916908373ffffffffffffffffffffffffffffffffffffffff160217905550610ca6806100616000396000f3fe608060405260043610610067576000357c0100000000000000000000000000000000000000000000000000000000900480633b5d1a241461006c5780634aaecf541461008857806379109baa146100b8578063b6adaaff146100e8578063f32c1b8214610104575b600080fd5b61008660048036036100819190810190610935565b610134565b005b6100a2600480360361009d9190810190610987565b6101df565b6040516100af9190610af8565b60405180910390f35b6100d260048036036100cd91908101906109c3565b610434565b6040516100df9190610af8565b60405180910390f35b61010260048036036100fd9190810190610935565b610508565b005b61011e600480360361011991908101906108a0565b6105dc565b60405161012b9190610af8565b60405180910390f35b6000809054906101000a900473ffffffffffffffffffffffffffffffffffffffff1673ffffffffffffffffffffffffffffffffffffffff16633b5d1a24826040518263ffffffff167c01000000000000000000000000000000000000000000000000000000000281526004016101aa9190610af8565b600060405180830381600087803b1580156101c457600080fd5b505af11580156101d8573d6000803e3d6000fd5b5050505050565b600080600260009054906101000a900473ffffffffffffffffffffffffffffffffffffffff1673ffffffffffffffffffffffffffffffffffffffff16636a627842336040518263ffffffff167c01000000000000000000000000000000000000000000000000000000000281526004016102599190610a74565b602060405180830381600087803b15801561027357600080fd5b505af1158015610287573d6000803e3d6000fd5b505050506040513d601f19601f820116820180604052506102ab919081019061095e565b9050600260009054906101000a900473ffffffffffffffffffffffffffffffffffffffff1673ffffffffffffffffffffffffffffffffffffffff1663095ea7b38460016040518363ffffffff167c0100000000000000000000000000000000000000000000000000000000028152600401610327929190610a8f565b600060405180830381600087803b15801561034157600080fd5b505af1158015610355573d6000803e3d6000fd5b505050506103616106b7565b6000809054906101000a900473ffffffffffffffffffffffffffffffffffffffff1673ffffffffffffffffffffffffffffffffffffffff1663d09ef241866040518263ffffffff167c01000000000000000000000000000000000000000000000000000000000281526004016103d79190610af8565b60e06040518083038186803b1580156103ef57600080fd5b505afa158015610403573d6000803e3d6000fd5b505050506040513d601f19601f82011682018060405250610427919081019061090c565b9050819250505092915050565b60008060009054906101000a900473ffffffffffffffffffffffffffffffffffffffff1673ffffffffffffffffffffffffffffffffffffffff166379109baa84846040518363ffffffff167c01000000000000000000000000000000000000000000000000000000000281526004016104ae929190610b13565b602060405180830381600087803b1580156104c857600080fd5b505af11580156104dc573d6000803e3d6000fd5b505050506040513d601f19601f82011682018060405250610500919081019061095e565b905092915050565b6105106106b7565b6000809054906101000a900473ffffffffffffffffffffffffffffffffffffffff1673ffffffffffffffffffffffffffffffffffffffff1663d09ef241836040518263ffffffff167c01000000000000000000000000000000000000000000000000000000000281526004016105869190610af8565b60e06040518083038186803b15801561059e57600080fd5b505afa1580156105b2573d6000803e3d6000fd5b505050506040513d601f19601f820116820180604052506105d6919081019061090c565b90505050565b6000600160009054906101000a900473ffffffffffffffffffffffffffffffffffffffff1673ffffffffffffffffffffffffffffffffffffffff1663b8a8f54f868686866040518563ffffffff167c010000000000000000000000000000000000000000000000000000000002815260040161065b9493929190610ab8565b602060405180830381600087803b15801561067557600080fd5b505af1158015610689573d6000803e3d6000fd5b505050506040513d601f19601f820116820180604052506106ad919081019061095e565b9050949350505050565b60e060405190810160405280600073ffffffffffffffffffffffffffffffffffffffff16815260200160008152602001600081526020016000815260200160008152602001600073ffffffffffffffffffffffffffffffffffffffff1681526020016000600781111561072657fe5b81525090565b60006107388235610bb1565b905092915050565b600061074c8251610bc3565b905092915050565b60006107608235610bd5565b905092915050565b60006107748251610be1565b905092915050565b60008083601f840112151561079057600080fd5b8235905067ffffffffffffffff8111156107a957600080fd5b6020830191508360018202830111156107c157600080fd5b9250929050565b600060e082840312156107da57600080fd5b6107e460e0610b3c565b905060006107f484828501610740565b60008301525060206108088482850161088c565b602083015250604061081c8482850161088c565b60408301525060606108308482850161088c565b60608301525060806108448482850161088c565b60808301525060a061085884828501610740565b60a08301525060c061086c84828501610768565b60c08301525092915050565b60006108848235610bfa565b905092915050565b60006108988251610bfa565b905092915050565b600080600080606085870312156108b657600080fd5b600085013567ffffffffffffffff8111156108d057600080fd5b6108dc8782880161077c565b945094505060206108ef87828801610878565b925050604061090087828801610754565b91505092959194509250565b600060e0828403121561091e57600080fd5b600061092c848285016107c8565b91505092915050565b60006020828403121561094757600080fd5b600061095584828501610878565b91505092915050565b60006020828403121561097057600080fd5b600061097e8482850161088c565b91505092915050565b6000806040838503121561099a57600080fd5b60006109a885828601610878565b92505060206109b98582860161072c565b9150509250929050565b600080604083850312156109d657600080fd5b60006109e485828601610878565b92505060206109f585828601610878565b9150509250929050565b610a0881610c04565b82525050565b610a1781610b69565b82525050565b610a2681610b7b565b82525050565b610a3581610c16565b82525050565b6000828452602084019350610a51838584610c4c565b610a5a83610c5b565b840190509392505050565b610a6e81610ba7565b82525050565b6000602082019050610a8960008301846109ff565b92915050565b6000604082019050610aa46000830185610a0e565b610ab16020830184610a2c565b9392505050565b60006060820190508181036000830152610ad3818688610a3b565b9050610ae26020830185610a65565b610aef6040830184610a1d565b95945050505050565b6000602082019050610b0d6000830184610a65565b92915050565b6000604082019050610b286000830185610a65565b610b356020830184610a65565b9392505050565b6000604051905081810181811067ffffffffffffffff82111715610b5f57600080fd5b8060405250919050565b6000610b7482610b87565b9050919050565b60008115159050919050565b600073ffffffffffffffffffffffffffffffffffffffff82169050919050565b6000819050919050565b6000610bbc82610b87565b9050919050565b6000610bce82610b87565b9050919050565b60008115159050919050565b6000600882101515610bf257600080fd5b819050919050565b6000819050919050565b6000610c0f82610c28565b9050919050565b6000610c2182610ba7565b9050919050565b6000610c3382610c3a565b9050919050565b6000610c4582610b87565b9050919050565b82818337600083830152505050565b6000601f19601f830116905091905056fea265627a7a72305820c25a9ea9eed6560dda5d33d682f5ff5d57d4c3c75f6a0741fdf5ea20aa784b6b6c6578706572696d656e74616cf50037",
  "source": "pragma solidity ^0.5.1;\r\npragma experimental ABIEncoderV2;\r\n\r\nimport \"../Platform.sol\";\r\nimport \"../Commodity.sol\";\r\nimport \"../lib/Shared.sol\";\r\nimport \"../Part.sol\";\r\n\r\ncontract Supplier {\r\n    Platform plt;\r\n    Commodity CMD;\r\n    Part pt;\r\n    address private supervisor;\r\n\r\n    constructor() public {\r\n        supervisor = msg.sender;\r\n    }\r\n\r\n    function addCommodity(\r\n        string calldata name,\r\n        uint256 price,\r\n        bool available\r\n    ) external payable returns (uint256) {\r\n        return CMD.add(name, price, available);\r\n    }\r\n\r\n    function createOrder(uint256 index, uint256 due)\r\n        external\r\n        payable\r\n        returns (uint256)\r\n    {\r\n        return plt.createOrder(index, due);\r\n    }\r\n\r\n    function takeOrder(uint256 index) external payable {\r\n        plt.takeOrder(index);\r\n    }\r\n\r\n    function fillOrder(uint256 index, address distributor)\r\n        external\r\n        payable\r\n        returns (uint256)\r\n    {\r\n        uint256 tokenId = pt.mint(msg.sender);\r\n        pt.approve(distributor, 1);\r\n        Shared.Order memory detail = plt.getOrder(index);\r\n        return tokenId;\r\n    }\r\n\r\n    function completeOrder(uint256 index) external payable {\r\n        Shared.Order memory detail = plt.getOrder(index);\r\n    }\r\n}\r\n",
  "sourcePath": "C:\\Users\\Calvin\\Desktop\\path-project\\contracts\\entity\\Supplier.sol",
  "compiler": {
    "name": "solc",
    "version": "0.5.1+commit.c8a2cb62.Emscripten.clang"
  },
  "schemaVersion": "3.4.3",
  "updatedAt": "2021-11-16T09:37:38.848Z",
  "networkType": "ethereum",
  "devdoc": {
    "methods": {}
  },
  "userdoc": {
    "methods": {}
  }
}